:020000040800F2
:1000000000180020C10600081506000817060008A1
:1000100000000000000000000000000000000000E0
:1000200000000000000000000000000019060008A9
:1000300000000000000000001B0600081D0600086C
:100040004107000841070008410700084107000870
:100050004107000841070008410700084107000860
:100060004107000829060008410700084107000869
:100070004107000841070008410700084107000840
:1000800041070008000000000000000041070008D0
:100090000000000041070008410700084107000870
:1000A0000000000041070008410700084107000860
:1000B0004107000800000000410700083906000859
:1000C00010B5064C2378002B07D1054B002B02D02E
:1000D000044800E000BF0123237010BDD8010020B8
:1000E000000000007C4C0008044B10B5002B03D02E
:1000F0000349044800E000BF10BDC04600000000F6
:10010000DC0100207C4C000802B47146490849001B
:10011000095C49008E4402BC7047C04603B4714676
:10012000490840004900095E49008E4403BC7047FD
:1001300003B47146490840004900095A49008E44F9
:1001400003BC7047002243088B4274D303098B42DF
:100150005FD3030A8B4244D3030B8B4228D3030C97
:100160008B420DD3FF22090212BA030C8B4202D339
:100170001212090265D0030B8B4219D300E0090A61
:10018000C30B8B4201D3CB03C01A5241830B8B426A
:1001900001D38B03C01A5241430B8B4201D34B0353
:1001A000C01A5241030B8B4201D30B03C01A5241B8
:1001B000C30A8B4201D3CB02C01A5241830A8B423D
:1001C00001D38B02C01A5241430A8B4201D34B0226
:1001D000C01A5241030A8B4201D30B02C01A52418A
:1001E000CDD2C3098B4201D3CB01C01A524183093E
:1001F0008B4201D38B01C01A524143098B4201D378
:100200004B01C01A524103098B4201D30B01C01AA2
:100210005241C3088B4201D3CB00C01A524183081C
:100220008B4201D38B00C01A524143088B4201D349
:100230004B00C01A5241411A00D2014652411046A9
:100240007047FFE701B5002000F006F802BDC04688
:100250000029F7D076E770477047C04610B598B0D0
:10026000302200210CA803F0BFFE1022002101A8BB
:1002700003F0BAFE1822002105A803F0B5FE012400
:1002800028230BA80B931394129401F0A3FD0028CC
:1002900001D072B6FEE70723039001930490043B5C
:1002A000210001A8029302F01BF8002801D072B6C9
:1002B000FEE780230A909B0205A8059302F09AF8B6
:1002C000002801D072B6FEE718B010BDF0B58FB0AF
:1002D00000F05CFAFFF7C2FF1422002109A803F026
:1002E00083FE8022754C920263690221134363618D
:1002F00063697348134080220793079B6369D202A6
:100300001343636163698027134008930022089BAD
:1003100000F088FE9020FF0000223900C005002573
:1003200000F080FE01260223654809A909930A9678
:100330000B950C9500F0BEFD902009A9C00509970A
:100340000A960B950C9500F0B5FDF0235C485B0018
:1003500009A909930A950B9500F0ACFD63692A0081
:100360003343636163692900334009200693069B88
:1003700000F096FC092000F0BDFC0C22290009A821
:1003800003F032FE4F4C504B2000236080231B06AD
:10039000636008236361C223FF33E361A561631DCA
:1003A000A560E56026612562DD77A56200F060FA50
:1003B000A84201D072B6FEE70223099380235B01B5
:1003C0000A930423200009A90B9300F08DFB002859
:1003D00001D072B6FEE70323200009A9099300F0BB
:1003E00083FB002801D072B6FEE71023200009A984
:1003F000099300F079FB002801D072B6FEE71123C3
:10040000200009A9099300F06FFB002801D072B603
:10041000FEE71223200009A9099300F065FB05906F
:10042000002801D072B6FEE703F0A8FA274D284B4A
:1004300028002B60059B6B606423EB60AB6000F0D1
:10044000F7FD0590002801D072B6FEE7200000F00D
:10045000CFFB902032003900C00500F0E3FD2800FA
:1004600000F018FE1B4B1A68002A22D0059A2021A2
:1004700013481A6000F0D0FD80210400104800F0FD
:10048000CBFD8021070049000D4800F0C5FD40214B
:1004900006000B4800F0C0FD02000F4B0F485988C2
:1004A00002911B8821000193009233003A0003F06F
:1004B0003FFD0121002001F07DFCD0E7001002404B
:1004C00000040048FC0100200024014080020020BC
:1004D0000030004094020020F4010020944C0008F9
:1004E00010B5104C2168022903D100220E4800F0FB
:1004F00099FD2368282B04D103220C490C4800F0F5
:100500005BFA23680133312B01DC236010BD00232B
:10051000012202210448236000F084FD0122054BE2
:100520001A60F3E79002002000040048F401002064
:10053000FC0100209402002010B51400080091B2C4
:1005400003F06EFA200010BD72B6FEE701210A4BDF
:1005500082B09A690A439A619A690A40802100929E
:10056000009ADA6949050A43DA61DB690B400193B5
:10057000019B02B07047C0460010024030B5050034
:1005800089B01422002103A803F02EFD1D4B2A6818
:100590009A4234D180211C4B89009A6990200A43E9
:1005A0009A619A69C0050A4080210192019A5A69AC
:1005B00089020A435A615B690B400293029B0C2338
:1005C00003A90393093B049300F074FC80220F4CB1
:1005D0000F4BE260921822618022D2002360626198
:1005E0000023202220006360A360A261E36100F089
:1005F000A7FB002801D0FFF7A7FF2C63656209B0B5
:1006000030BDC04600240140001002403C020020E2
:1006100008000240FEE7FEE77047704710B500F0A3
:10062000C5F8FFF75DFF10BD10B5024800F0F8FBFC
:1006300010BDC0463C02002010B5024800F0C2FDCB
:1006400010BDC046E806002070B50E00140000255D
:10065000A54201DB200070BD00E000BF70550135F0
:10066000F6E701204042704780239B0100204B6049
:100670007047012070470020704700000B490C4A6A
:100680000300521A0B4910B50868002801D10A4826
:1006900008600868C318934206D903F0FBFC0C23DA
:1006A00003600120404210BD0B60FCE70004000025
:1006B0000018002098020020480D0020704700001C
:1006C00013488546FFF7FAFF12480168090E124ADF
:1006D000914205D111481249016012481249016046
:1006E00012481349134A002302E0D458C45004337B
:1006F000C4188C42F9D3104A104C002301E0136057
:100700000432A242FBD303F0CBFCFFF7DFFDFEE790
:1007100000180020040000001F0000001810024014
:100720000100000000000140000000000000002067
:10073000D8010020644D0008D8010020480D002099
:10074000FEE7000070B50500FA200D4B8000197817
:10075000FFF7F8FC0B4C01002068FFF7F3FC00F0FA
:10076000D5FA04000120002C09D1032D07D8023846
:100770002200290000F094FA2000034B1D6070BD98
:100780000400002000000020080000201023064A7A
:1007900010B5116803200B431360FFF7D3FFFFF779
:1007A000D5FE002010BDC04600200240034A044B85
:1007B00011681B785B1813607047C0469C020020CC
:1007C00004000020014B18687047C0469C020020BE
:1007D000002373B503210193036804009A680A405B
:1007E000012A07D11968114201D0002076BDDA68CC
:1007F0001204FAD499681B4A114208D01023012030
:10080000A26B1343A363E36B0343E363EEE70122AD
:1008100099680A439A60144B14491868FFF792FCD0
:100820000190019B002B19D1FFF7CCFF0125060099
:1008300023681B682B42D8D1FFF7C4FF801B022816
:10084000F6D923681B682B42F2D11023A26B01203A
:100850001343A363E36B2B43E363C7E7019B013BB4
:100860000193DEE7170000800000002040420F00E7
:1008700070B504000120002C7ED0A36B002B06D1A4
:1008800022003432E36320001370FFF777FEA36B7E
:10089000DB0600D584E0226893685B0700D57FE023
:1008A000A16B424B19400633FF330B430321A36373
:1008B00093680B40012B05D1116819420ED1D36802
:1008C0001B040BD41821D3688B43A1680B43D3605E
:1008D000136961689B009B080B431361D36834491B
:1008E0000B40D360237E607E9B03C0030343A17E45
:1008F000E068034348030343601DC07F4000034397
:10090000A06A0138451EA84100030343206902384C
:100910004542684180000343E07E012804D100295C
:100920002BD1802149020B43C220E169FF30814273
:1009300002D0206A01430B438020D168400519434F
:10094000D160E16A814202D0481E062807D80725F7
:1009500050692940A8435061506901435161D268F0
:1009600014490A409A4210D100200323E063A26B8D
:100970009A43023B1343A36370BD2021A56B294317
:10098000A163E16B0843E063CEE712230120A26B71
:100990009A43023B1343A363E36B0343E363EBE735
:1009A0001023A26B01201343A363E5E7FDFEFFFFC5
:1009B0001902FEFFE7FF3F83F7B5036804009B6859
:1009C0000E00022001925B0730D4270034373B78B9
:1009D000012B2BD001233B70637E012B27D1A26B0F
:1009E000164B00251A4080235B001343A363E56385
:1009F0003D70206B124B21688362124BC362124B15
:100A000003631C230B604A680C3B13434B600123B8
:100A1000CA681343CB603200019B403100F0C2F939
:100A200004232800226891680B439360FEBD2000D8
:100A3000FFF7CEFE0028D2D0F8E7C046FEF0FFFF59
:100A4000510A0008C30A0008CF0A000870470000D6
:100A50005022436A10B5996B11422BD1996BB13278
:100A6000FF320A43C0219A631A680901D06808421C
:100A700013D1997E002910D1116809070DD591680D
:100A800049070ED40C20516881435160996B0B4A81
:100A900011400432FF320A439A631800FFF7D6FF71
:100AA00010BD2022996B0A439A630122D96B0A4335
:100AB000DA63F2E71B6B1B6B9847F1E7FEFEFFFF63
:100AC000704710B5406AFFF7FBFF10BD7047402329
:100AD000406A10B5826B134383630423C26B1343D4
:100AE000C363FFF7F3FF10BDF7B5002204000192C6
:100AF000343422780300C56A0220012A2AD0013842
:100B000020701A68966876075FD40B684F681E00DD
:100B1000BC46304F9840103EBC453FD0976A3843A2
:100B200090628020400585420FD0013D062D0CD9F2
:100B30000720556989680540A94206D055690140DA
:100B400085435561556929435161022E03D900201F
:100B500000232370FEBD20480168102B1BD01A0013
:100B6000113A55426A411D4D52422A4080256D047A
:100B700052190A430260102BE9D1194B1949186820
:100B8000FFF7E0FA0A2343430193019B002BDED0D9
:100B9000019B013BF8E780221204EAE7916A814356
:100BA0009162022ED3D80C4A1168102B0BD0113B46
:100BB00058424341C0205B42000403400A481B18CE
:100BC0000B401360C3E7094BFAE72022996B0A43F5
:100BD0009A63BDE70110000008270140000040FFB4
:100BE0000000002040420F00FFFFFFFEFFFF7FFFDD
:100BF000F8B506003436337804000220012B45D0C6
:100C000001230321337023689A680A40012A05D121
:100C1000196811423BD1DA68120438D4A16B1F4A1B
:100C200011400632FF320A430321A263DD68DA680D
:100C30008A43DA608022996812060A439A60FFF7B5
:100C4000C1FD070023689A68002A0DDB0321DA68DA
:100C50000D401543DD6001230020A26B8A4313433E
:100C6000A3630023337011E0FFF7ACFDC01B022823
:100C7000E8D923689B68002BE4DA1223A26B0120D9
:100C80009A43023B1343A36300233370F8BD202330
:100C9000A26B01201343A363E3E7C046FDFEFFFF01
:100CA00030B5FF2503242A000440E400A240890156
:100CB0002940D243A140C3B200280ADBC0240B4B19
:100CC00080088000C018A400035913400B4303514F
:100CD00030BD0F200340083B05489B089B001B18B4
:100CE000D86902400A43DA61F2E7C04600E100E059
:100CF00000ED00E0002805DB1F2318401E3B834069
:100D0000014A13607047C04600E100E08022431EA4
:100D10005204012093420DD2C021074A0748536074
:100D2000036A09061B021B0A0B4303620020072308
:100D3000906013607047C04610E000E000ED00E0F6
:100D400070B504000120002C24D00223A51CEB77F1
:100D50002068114B0268A1681A4063680B43E16880
:100D60000B4321690B4361690B43A1690B43E169A3
:100D70000B4313430360094B1421C018FFF7E2F93A
:100D8000074B80002064E36300200123A063E41884
:100D9000EB77E07770BDC0460FC0FFFFF8FFFDBFE7
:100DA00000000240F7B5451C0193EB7F04000220D0
:100DB000012B27D001232718EB77FB7F00269C46C9
:100DC0006046DBB2012828D10130F8772068A6639D
:100DD0000568266C9D43B3400560E56B6B60019B25
:100DE00043606368102B0ED18260C160E36A0268C1
:100DF000002B0BD00E23134303600123026813431F
:100E000003600020FEBD8160C260EFE70A23134348
:100E10000422036003689343EEE70220EE77F1E7D4
:100E2000F8B504273E00016CC26B8E40156803685C
:100E30001C6835420DD03C420BD01968890602D49B
:100E40001968B9431960C36A5660002B19D09847D6
:100E500017E002273E008E40354213D03C4211D0AD
:100E60001968890606D40A241968A143196001216A
:100E7000C319D97756600022431CDA77836A9342FC
:100E8000E5D1F8BD082637008F403D42F9D0344205
:100E9000F7D00E251C68AC431C6001231C008C405D
:100EA0005460821C8363D3770022C318DA77036B04
:100EB000E5E700000023F0B587B00A681400DC40C5
:100EC00001D107B0F0BD012514009D402C400094D5
:100ED0002A4200D194E04A685F00944603226446A7
:100EE00022400324BC40E4430194541E012C2ED81C
:100EF0008668019C2640CC68BC40344384604468CA
:100F00000126AC4325006446240934409C402C4310
:100F10004460C568019C25408C68BC402C43C4607B
:100F2000022A16D107250F261D40AD00AE40DC0871
:100F3000A40004190294246A03962600039CA64385
:100F400034000E69AE402643029C266201E0032A6B
:100F5000DFD1BA400468019D25402A43C0240260C5
:100F60006246A40222424BD00125264A902794696A
:100F7000FF052C43946192699C082A400592059ACA
:100F8000214AA400A4180F2202351D40AD00AA403A
:100F9000A66896430022B84208D01C4F0132B842DE
:100FA00004D01B4F0132B84200D00332AA4067463A
:100FB0003243A260174A009C9668009DE443354383
:100FC000FF0201D43500254067469560D668009D34
:100FD0003543BF0201D4350025406746D5605668C9
:100FE000009D3543BF0301D4350025406746556059
:100FF0001568009E2E43FF0301D425402E00166085
:1010000001335AE70010024000000140000400488C
:10101000000800480004014000690840431E984150
:10102000C0B27047002A01D0816170478162FCE73D
:1010300070B504000120002C17D02368124A072540
:101040001A60124A1A6062685A60A2689A60FFF7D2
:10105000B9FB06002368DA68100028402A4205D14F
:101060001969E26891420CD01A6170BDFFF7AAFBC2
:10107000801B2728EED92368DB682B42EAD00320A7
:10108000F3E7034A1A60F0E7CCCC000055550000A6
:10109000AAAA00000368024A00201A607047C046EE
:1010A000AAAA0000F0B50400012587B0002832D0BC
:1010B000304D435DDAB2002B04D1AA239B00C25409
:1010C00002F048FD03236355206801F035FA002340
:1010D000012719006068834220D3002228261100CE
:1010E000904233D823006A46103343CB43C203CB2C
:1010F00003C2A268E3686168206801F027FA002350
:10110000621DD37701226255E2691D00012A02D1D6
:10111000200000F03AFE280007B0F0BD2926282262
:10112000B4465A43A2189444664637702826B446FB
:101130009444664633702B26B44694446646013385
:101140003170DBB29163D1631164C4E73300534360
:10115000E3181F006A37FF373970013F3A70F970A2
:1011600081336C3FF967FF33803701323960D2B287
:101170001960B5E7A902000070B5AA25AD00435D6E
:1011800004000220012B09D001236355206801F0DF
:10119000C9F9206801F0D7FB0020605570BD70B51B
:1011A000AA25AD00435D04000220012B08D00123D5
:1011B0006355631DD977206801F0BEFB00206055A0
:1011C00070BD0000F0B5040085B0006801F0C3FBFD
:1011D000802305001B021D40184201D100F017FCBE
:1011E0002068821DD38F1BB2002B01DB05B0F0BD40
:1011F0000F21D38F194001910F219AB20B4200D0D9
:10120000C3E01023110019401A422AD10388B84ABA
:1012100013408022120213430380030050331A88C4
:10122000230028331B78DB00C3189B18B14A200029
:101230009B181B88E26B9B059B0D6364D318E363CB
:1012400002F0BAFC631DDA7F002AC9D0206C226844
:101250000028C5D18025D97F4C3229431180D87709
:10126000BEE7028880211600090193B20E400A42AF
:1012700022D0030050331A88B4235B00E35CAC2116
:10128000DB00C3189B189C4A89009B1822001B880E
:1012900069329B059B0DFF32D3616118D28801F042
:1012A000C7FD22689549138820000B4080210B431D
:1012B000138002F06BFC93E71BB2002B00DB8FE77F
:1012C00003888E4A250013408022134303800300C5
:1012D00050331A88B4235B00E35C6935DB00C31824
:1012E0009B18854AFF359B181B889B059B0DEB615E
:1012F0000DD0696900290AD0EA8801F099FD6B696F
:10130000EA6931009B1820006B6102F048FC2168FB
:101310000A8893B2120500D562E7C02292011340F9
:10132000934200D15CE70B0050331A88724BCB1804
:101330009B181A889205920D1A802A693E2A0CD9A8
:101340001F2550092A4055426A41801A1A88800296
:1013500010436B4A024392B205E0002A0ED180206E
:101360001A88000202431A800A88664B1A40C0237A
:101370009B015340644A13430B8031E70125500819
:101380002A40801880021A88E4E7019B9F00C21956
:10139000138899B21BB20291002B00DBF6E0138890
:1013A00056490B4080210B4313802823019A534355
:1013B000E3181A001D007532FF3212786935FF35C7
:1013C000002A1AD10200503211882A78D20052180D
:1013D00049491218521812889205950D002A00D119
:1013E000B3E01A006F327D33FF331900FF322B0058
:1013F0001288096801F01CFDA7E019006C31FF316B
:1014000009782A78022900D084E08026F601B446C3
:101410006546029E81332E400396060050360096A4
:101420006646029DFF331968354230D0009D2E88F4
:10143000D50076192F4D361876193588AD05AD0DC6
:101440008D420DD900211960910041180E882D4B55
:101450001E4080239B0173402B4E33430B8002E0E0
:10146000491B1960F0D0029B5B0607D592008218D9
:10147000138826490B4026490B431380002D64D066
:101480002823019A5343E3181A007132ABE7009DF9
:101490002E88D5007619184D361876193588AD0581
:1014A000AD0D8D420DD903991960910041180E8838
:1014B000144B1E4080239B017340134E33430B801B
:1014C00002E0491B1960F0D0029B5B0607D4920032
:1014D000821813880D490B400D490B431380002DD2
:1014E00033D02823019A5343E3181A0073327AE762
:1014F0000F8FFFFF02040000060400008F0F0000A2
:101500000080FFFF8FBFFFFF808000008F8FFFFFF5
:10151000C0800000920082181688CE493140CE4E1D
:10152000314311802A78910041180D880100503113
:101530000988D200521812186D0462D5C749521892
:1015400012889205950D002A9ED1282301995943AE
:10155000621816008536FF363068083E4019B060C4
:1015600030684019306010008130FF30006800287A
:1015700003D0FC32D26F95424BD2019A20005343E4
:10158000E3186933FF33197802F009FB8022029BCC
:101590002068134200D123E6C2191388B049019D87
:1015A0000B40B0490B439BB2138028235D43651960
:1015B0002A002B321178EA18012959D10023290079
:1015C0002B6434310978994236D04021029E029F23
:1015D0000E4029350F4234D02978994220D103009A
:1015E000117850331D889D4BC900C3185B19C91869
:1015F0000B889C489B059B0D0B800B8803439BB27B
:1016000019E09949521812889205950D002A9CD02C
:101610006BE76931FF312068611801F0B5F9B5E772
:10162000012909D101008D4E50310D8811788019A2
:10163000C900401909180B801178200002F0BCFA8B
:10164000CEE52B78002B06D10300117850331D888E
:10165000C900854BC9E7012BEED10300824D503301
:10166000198813784019DB0040181B181E80E3E727
:101670001278029F0392D2000092802202995200B7
:101680002E6C174011421ED1020050321288009970
:10169000821852187149521812889205920DB2425E
:1016A00002D303992F64C8E7E96BB61A8918E96376
:1016B000696C2E648A1801996A6401315943611872
:1016C00001F062F98CE540220300029F0299174065
:1016D0005033114200D1DCE060491A884718009964
:1016E000BA18525A9205920D94460022B44501D27E
:1016F0006246B21A282601994E43A6193264802602
:101700000299F60131400E00002A4AD129218C4667
:10171000AC446146097800292ED11A880099BA187C
:10172000521817884F49BF05BF0D178017880F4300
:10173000BFB217804C4A1B888018C018009BC01885
:1017400003889B059B0D038003880B439BB203809A
:101750002000039902F030FA002E00D1D8E02B00CF
:1017600028331B7822689B00D218138839490B4014
:101770003E490B431380CBE00B000129E8D14F33E6
:101780009C46844463461B880099FB185B181A80AA
:10179000634635491B884018C018009BC01802805A
:1017A000D6E7002908D0039B990041180A88294BE5
:1017B00013402E4A13430B802823019A5343E31806
:1017C0001E004C363278012A00D0A1E0DA6B996C09
:1017D00062440292DA635A6C62445A649A6B914290
:1017E00029D3891A99642B002933197893B20029D7
:1017F00045D1010050310988009E791889190E8859
:10180000B605B60D0E803E2A1FD91F2756093A404D
:1018100057427A41B61A0A88B6023243114E324311
:1018200092B20A80282201994A43A218128E029984
:1018300001F095F86CE0002902D162463170D2E7E0
:10184000002232709A640A00CDE7002A10D10A887B
:10185000E4E7C0468F8FFFFFC08000000204000055
:101860000F8FFFFF0080FFFF0604000080C0000014
:10187000012756083A40B618B6020A88CFE7012970
:10188000D0D1020050321288BF18009ABF183B8096
:10189000C8E7A9491A888C46009984446244525A80
:1018A0009205920DB24200D8B71A282601994E43EC
:1018B000A619376480260299F60131400E00002FE8
:1018C00040D12A0029321278002A2BD19B491A884C
:1018D00040188018009A9A49801802889205920D43
:1018E000028002880A4392B202801B88009A6344F5
:1018F0009B181A889205920D1A801A880A4392B290
:101900001A802000039902F057F9002E00D126E733
:1019100028352B7821689B00C9180A88894B1A4002
:10192000302326E5012AECD10300844950331A887C
:1019300040188018009A801807801B8863449B1801
:101940001F80DEE7002908D1039B990041180E880B
:101950007D4B33407D4E33430B80282301994B430D
:10196000E3181F004C3739780129D1D1D96B9E6C0F
:1019700089180291D963596C89185964996B8E4200
:1019800026D3761A9E642B0029331A788BB2002A4C
:1019900033D1020050321288009E62449219168898
:1019A000B605B60D16803E291CD91F274E093940B1
:1019B0004F427941761A1188B6023143604E314365
:1019C00089B21180282201994A43A218528E2EE72B
:1019D000002E02D111003E70D5E7002231009A643A
:1019E0003A70D0E7002901D11188E7E701274E08B6
:1019F00039407618B6021188E1E7012AE2D10200E7
:101A0000503212880099624452181380DAE7430575
:101A10000ED523684E490633DA8F20000A40DA8754
:101A200002F0DCF829002000FFF7B9FBFFF7DEFB2E
:101A3000430407D5236847490633DA8F0A40DA871B
:101A4000FFF7D4FB802301009B011940184204D00A
:101A5000236841490633DA8FF0E7C3041AD504201E
:101A600023680233DA8F8243DA87DA8F00188243E1
:101A7000DA87B8239B00E25C012A03D12000E154FD
:101A800000F097F9200002F0CDF8236833490633BF
:101A9000DA8FD3E7030513D5082123689A1CD08F6A
:101AA00006330143D187D98F2D480140D9870423BC
:101AB000D18F0B43D387200002F0A2F8FFF796FBEB
:101AC0008025284221D0B82023688000991DCA8F24
:101AD000AA43CA87225C002AEDD1991CCD8F04321B
:101AE0002A43CA870822CD8F54332A43CA8701214B
:101AF0003C2221541B8820009B081340B9229200ED
:101B0000A35000F056F9FFF771FB83050AD523684F
:101B100014490633DA8F20000A40DA8702F057F8BA
:101B2000FFF764FBC00501D4FFF760FB23680E4993
:101B30000633DA8F82E7C046060400000204000084
:101B40000080FFFFBF8FFFFF8F8FFFFF80C000006F
:101B5000FFFBFFFFFFBFFFFFFFDFFFFFFFEFFFFF09
:101B6000FFF7FFFFFFFDFFFFFFFEFFFF70B5050062
:101B70000720084049B22824002919DA411C614392
:101B8000273C69184C7008700A61CB70022B01D198
:101B900000230B71AA24A4002B5D0220012B06D088
:101BA00001232B55286800F0E5FC0020285570BD66
:101BB0004443210000262C1969316A34FF31FF3477
:101BC00069182670DFE707220A4049B270B528235A
:101BD0000400002913DA511C5943273B41184B706C
:101BE000AA250A70AD00635D0220012B06D00123F7
:101BF0006355206800F0CCFD0020605570BD534354
:101C000019006931FF31C318411800206A33FF33CE
:101C10001870E5E770B50724214021344C430519BD
:101C20002E007D36FF3632602A008132FF3213608B
:101C30002B0000268533FF3369351E60FF351B3BC3
:101C40001E70297021006931FF314118006800F0D1
:101C50009BFE300070BD07230B40282159434018DC
:101C60008530FF300068704770B528260724214072
:101C700034004C4304192500E26301224C352364EF
:101C80002A700025A364230065642933A4191A70FF
:101C90002170891871434118006800F075FE280012
:101CA00070BD0722436870B50A40040001209A42C3
:101CB00017D848B22823002814DA511C5943273B6F
:101CC00061184B700123AA258B700A70AD00625D0C
:101CD00002209A4205D06355206800F0D3FD002011
:101CE000605570BD4B4319000020E31869316A3319
:101CF000FF31FF3361181870E4E70F23426870B5B5
:101D00000B4004000120934219D807220A4049B22F
:101D10002823002914DA1118594361184870002546
:101D2000AA268D700A70B600A35D0220012B06D092
:101D30000123A355206800F0C5FD2800A55570BDFE
:101D4000534319000020E31869316A33FF31FF3330
:101D500061181870E3E710B50C0021060CD50721B7
:101D60002140282401316143401899B2002A08D14A
:101D70000273C180002010BD282161436931FF3109
:101D8000F2E7012283600273F4E703680200BA20DD
:101D9000012110B58000B82411500020A400105576
:101DA00054331A8811430222198019880A431A8071
:101DB00010BD70470420064A13698343136101294B
:101DC00001D130BF704740BF20BF20BFFAE7C046F7
:101DD00000ED00E0F0B5040085B000284ED00368A7
:101DE000DB0733D423689B0700D58AE023681B07F1
:101DF00000D5CAE023685B0700D5EDE02368DB0669
:101E00001AD562690423BB4D012A00D056E1696BE3
:101E100002270B436B636B6B1A436A63FEF7D2FCBA
:101E200006006B6B3B4200D141E1F8216A6BA3696C
:101E30008A43DB0013436B6323689B0600D565E18F
:101E4000636A002B00D0A4E100202FE00C22A94DF2
:101E50006B681340042B0BD06B681340082B0FD119
:101E6000C0226B685202134080225202934207D173
:101E70002B689B03B6D56368002BB3D1012015E016
:101E80006368012B14D180232A685B0213432B6003
:101E9000FEF798FC80270600BF022B683B42A1D1C9
:101EA000FEF790FC801B6428F7D9032005B0F0BD35
:101EB000002B16D12B68904A802713402B602B688B
:101EC0008E4ABF0213402B60FEF77CFC06002B6895
:101ED0003B4200D186E7FEF775FC801B6428F6D9EB
:101EE000E3E7052B05D180232A68DB0213432B602F
:101EF000C9E72B68804A13402B602B687F4A134048
:101F0000C5E70C227B4D6B6813420BD06B68134006
:101F1000082B15D1C0226B68520213408022120296
:101F200093420DD12B689B0702D5E368012BA5D105
:101F3000F8212A6823698A43DB0013432B6055E7A5
:101F4000E2680123002A0FD02A68022713432B607E
:101F5000FEF738FC06002B683B42E9D1FEF732FC65
:101F6000801B0228F7D9A0E72A6802279A432A6033
:101F7000FEF728FC06002B683B4200D136E7FEF74F
:101F800021FC801B0228F6D98FE7E2690123594D15
:101F9000002A10D06A6A022713436B62FEF712FC14
:101FA00006006B6A3B4200D024E7FEF70BFC801B67
:101FB0000228F6D979E76A6A02279A436A62FEF72D
:101FC00001FC06006B6A3B4200D113E7FEF7FAFB07
:101FD000801B0228F6D968E780220021454D520572
:101FE000EB690091134208D1EB691343EB61EB6994
:101FF00013400393039B012300938027404E7F00EF
:1020000033683B4215D0A368012B22D12A6A1343BF
:102010002B62FEF7D7FB022706002B6A3B423FD01C
:10202000009B012B00D0E9E6EB69364A1340EB61D7
:10203000E4E633683B433360FEF7C4FB019033684A
:102040003B42E0D1FEF7BEFB019BC01A6428F6D9E3
:102050002BE70122002B14D12B6A022793432B621A
:102060002B6A033293432B62FEF7ACFB06002B6A0C
:102070003B42D5D0FEF7A6FB234B801B9842F6D9F6
:1020800013E7052B05D1296A013B0B432B622B6A11
:10209000BDE72B6A934304222B622B6A9343B7E775
:1020A000FEF790FB184B801B9842B6D9FDE6FEF771
:1020B00089FB801B022800D8B3E6F6E6053203D17F
:1020C0006A6B9A436A63B0E66A6B02271343012284
:1020D0006B636B6B93436B63FEF774FB06006B6B78
:1020E0003B4200D1A8E6FEF76DFB801B0228F6D923
:1020F000DBE6C04600100240FFFFFEFFFFFFFBFFD4
:1021000000700040FFFFFFEF881300000C22554DC8
:102110006B681340934209D06B681340082B0ED1B3
:10212000C0226B6852021340934208D16B6B9B0331
:1021300000D485E6236A012B00D09FE680E6236A5F
:10214000002B13D080236A6B5B0213436B63FEF793
:1021500039FB80270600BF026B6B3B4200D06FE665
:10216000FEF730FB801B0228F6D99EE66B6B3E4AD9
:10217000802713406B63FEF725FB0600BF026B6BE5
:102180003B4200D15CE6FEF71DFB801B0228F6D91E
:102190008BE60C21334D6A680A40082A47D0334A3F
:1021A000022B32D12B68802713402B60FEF70AFBED
:1021B0000600BF042B683B4221D10F22EB6A802628
:1021C0009343226BB6041343EB62A16AE36A6A6825
:1021D0000B4327490A4013436B6080232A685B0442
:1021E00013432B60FEF7EEFA04002B68334200D055
:1021F0002AE6FEF7E7FA001B0228F6D955E6FEF7B5
:10220000E1FA801B0228D5D94FE62B6880261340BF
:102210002B60FEF7D7FA0400B6042B68334200D1D6
:1022200012E6FEF7CFFA001B0228F6D93DE6012B95
:1022300000D123E6C0216B68A06A4902EA6A19400E
:10224000814200D01AE60F210A40216B8A4200D059
:1022500014E6F02292031340E26A934200D1F3E5C0
:102260000CE6C04600100240FFFFFEFFFFFFFFFE2E
:10227000FF7FC2FF0C2070B5134D6B681840082813
:1022800008D00C38431E9841104B40421840104B68
:10229000C01870BD0F200F499A0C02408C5CEA6A8E
:1022A0000D490240895CC022802052021340400246
:1022B000834201D1094802E09342FBD10448FDF773
:1022C00041FF6043E5E7C0460010024000A69DFDC7
:1022D000006CDC02D24C0008E24C000800127A00CC
:1022E000F7B504000F00002801D10120FEBD012236
:1022F0003A4D2B6813408B421CD32268930722D49B
:10230000D2072FD401232A681A40BA4257D823682B
:10231000334D5B075AD4FFF7ADFF6B68314A1B069C
:102320001B0FD35C3049D84008600320FEF70AFA3F
:102330000020DBE72B6893430B432B602B68134093
:102340008B42D2D1D9E72649530704D5E023486808
:10235000DB0003434B60F0204B688343A0680343DA
:102360004B60CDE762681E4E012A03D133689B03A0
:1023700005D4BAE7022A1AD133689B01B5D50321E7
:1023800073688B4313437360FEF71CFA01900C23B0
:1023900072681A4063689B009A42B3D0FEF712FA43
:1023A000019BC01A114B9842F1D903209EE7032AE2
:1023B00001D1736BDBE733689B07E0D495E72A68AC
:1023C0009A432A602A681A42A1D08EE76B68084AAD
:1023D0001340E26813436B609DE7C0460020024053
:1023E00000100240C24C00080000002088130000CA
:1023F000FFF8FFFFF0B50368050085B0DB032BD5C0
:1024000080220021414C5205E3690091134208D11A
:10241000E3691343E361E36913400393039B0123DF
:10242000009380273A4E7F0033683B423BD0216ABD
:10243000C022080092006B68364E1040114244D111
:10244000236A6A68334013432362009B012B03D144
:10245000E369314A1340E3612B68DA0706D50320AC
:102460002A490A6B8243A86802430A639A0606D582
:10247000102026490A6B8243E86802430A639A03E4
:1024800006D5802021490A6B8243686902430A63AA
:1024900000205B0517D540211C4A136B8B4329692B
:1024A0000B4313630FE033683B433360FEF78AF955
:1024B000019033683B42BAD1FEF784F9019BC01A00
:1024C0006428F6D9032005B0F0BD13408342B7D08D
:1024D0008022236A206A1900520202432262226A81
:1024E0000E483140024022622162DB07A8D5FEF788
:1024F00069F907000222236A1342A1D1FEF762F9AB
:10250000074BC01B9842F5D9DCE7C04600100240DB
:1025100000700040FFFCFFFFFFFFFFEFFFFFFEFF2B
:1025200088130000821D03000020D087014A023377
:10253000DA87704780BFFFFF0230C38F024A134023
:10254000C38700207047C0467F40000084B010B5AC
:102550000400049205930122831C0020DA87D887A7
:10256000A31D5034D8870391208010BC08BC04B050
:1025700018470000F7B50E78794AB300C3181C88D5
:10258000CF781440012205000092032F08D83800AC
:10259000FDF7BAFD02423F3C8022920014430097AF
:1025A000704A1443A4B21C8018886F4C20403043FA
:1025B000104380B21880F0008446087BAC4450354C
:1025C0000195002800D068E0CD8848786D086D003E
:1025D000002823D080200199C0000988614409188F
:1025E0000D801988490604D5198821405F4C214384
:1025F00019805F4D012F00D1ABE020211C882C40B9
:1026000061400A4392B200981A80FEBDC022D200F7
:10261000144300220092C3E78022F8E70198096979
:102620000788544867443F1801983D800588524800
:1026300065442D182F88BF05BF0D2F803E290DD969
:102640001F204F0901400800414241417F1A29885B
:10265000BF020F434949394389B205E0002915D12A
:10266000802729883F02394329801988490404D5E5
:1026700019882140424C2143198042491C880C4052
:10268000C021002E00D080218901B9E701204F0828
:1026900001407F18BF022988DDE71D88022F3AD14B
:1026A000394E2540354301981D80058880200E89CC
:1026B0006544C00076082D18760001982E800588A4
:1026C0004E892C48654476082D1876002E8049786E
:1026D000274E8C46802160462A4DC90100281FD113
:1026E0001F880F4204D01988254F21403943198093
:1026F0001988490604D5198821401C4C21431980AA
:10270000C0211C8889012C406140114389B2198085
:102710001988314075E71D4E35401543ADB2C2E70B
:102720001888084204D019881548214001431980AF
:102730001988490604D5198821400C4C2143198079
:10274000012F09D020211C8834406140114389B2F7
:1027500019801988294054E719883140F6E7C046A6
:102760008F89FFFF8080FFFF8F8FFFFFC0800000F9
:10277000BF8FFFFF04040000060400000080FFFF7D
:1027800080C000008FBFFFFF808100008F8EFFFFA1
:10279000F0B50B784A78097B9B00C018314B0029B3
:1027A0001AD1002A0CD00288520605D502882E497B
:1027B0000A402E490A43028002882D490A402FE030
:1027C0000288520405D5028827490A4029490A434C
:1027D000028002882849F1E78027234E244D2649AC
:1027E000FF01002A21D102883A4204D00288214CFC
:1027F0003240224302800288204C520604D50288CF
:102800003240224392B20280028832401443A4B282
:10281000048002880A401A4392B2028002882A4049
:1028200013439BB203800020F0BD0288144C3A424F
:1028300004D002883240224392B2028002885206BB
:1028400004D50288094F32403A4302800288324060
:102850001443A4B2048002882A401A4392B2028030
:102860000288ABE78080FFFF8F8FFFFFC0800000F2
:10287000BF8FFFFF80C000008FBFFFFFC080FFFF42
:1028800080C0FFFF0B780C4A9B00C0184B78018872
:10289000002B08D0094B194010234B4013439BB227
:1028A000038000207047064B194080235B014B409A
:1028B0001A4392B20280F4E78080FFFFBF8FFFFFD0
:1028C0008FBFFFFF0B7B002B19D10B789B00C0182B
:1028D0004B78002B15D003885B0605D50388104A7A
:1028E0001340104A13430380CB78012B07D00E4BC3
:1028F00002881A40202353400C4A134303800020CF
:10290000704703885B0405D50388054A1340084ACD
:1029100013430380074B02881A40C0239B01EAE758
:102920008F8FFFFFC0800000BF8FFFFF80800000FF
:1029300080C000008FBFFFFF002902D180234C30F0
:10294000038000207047802258300388120213430E
:102950000380002070470630C08F80B2704730B5CA
:1029600080240133E40012195B0880185B00CB1847
:10297000401A44188B4200D130BD4A780D781202BB
:102980002A4322800231F4E7F0B54A7805000C00B2
:102990000B7B87B0012A00D01BE10A698F69029284
:1029A000974200D917002A00503261690192002B2A
:1029B0001DD1BFB23B00E2882800FFF7D0FF019B8A
:1029C000B54A19882378AA18DB0052189B181F8073
:1029D0002378B24A9B00EB181988114030224A40F4
:1029E000AF490A4392B200201A8007B0F0BD2278A6
:1029F000E0789300D200266AEB180392022800D0F8
:102A0000D1E0029AB24200D3BBE01A88A548F61B77
:102A10001040A54A104318801B8840209C466246FF
:102A2000024005926246CB1904932662BBB2024271
:102A300055D0019A128894469C4AA818039A60447B
:102A40008218138062892800FFF789FF049B029A8D
:102A500063610023B24201D2F31B3E00627823621D
:102A6000B3B2002A2ED1019A8B49108822786918B6
:102A70000918D200521811888905890D11803E2E3F
:102A80000CD91F203040710946427041091A108844
:102A9000890208438649014389B205E0002E0AD124
:102AA00080201188000201431180228904992800A6
:102AB000FFF755FF8CE70121700831404018800274
:102AC0001188E8E7012AF0D12A00734950321088B2
:102AD00022786918D200091852181380E5E7019A84
:102AE000128894466C4AA818039A6044821813808E
:102AF00022892800FFF733FF049B029A6361059B3C
:102B0000B24201D2F31B3E0062782362B3B2002AC4
:102B10002AD1019A65491088227869180918D200CB
:102B2000521811888905890D11803E2E0CD91F205D
:102B30003040710946427041091A108889020843E1
:102B40005B49014389B205E0002E06D1802011883F
:102B50000002014311806289A8E7012170080E403C
:102B6000801911888002ECE7012AF4D12A004F492C
:102B70005032108822786918D20009185218138030
:102B8000E9E718884B4F464A3840104380B2188016
:102B9000019B039A1888404BEB181B189A18B3B284
:102BA0001380228983E71888F61B019A266216880B
:102BB000BBB2400607D53D4AA818039A801982186F
:102BC0001380628973E7344AA818039A801982181F
:102BD000E6E7002B3CD18A6909698A4201D9531A78
:102BE0000A00A3612B0031495033188823786918F3
:102BF0000918DB005B1819888905890D19803E2AA0
:102C000018D91F205109024050424241891A1A889E
:102C100089021143264A0A4392B21A802378264A2F
:102C20009B00EB1819881140C02292014A402349A9
:102C30000A43D8E6002A04D180211A8809020A43EF
:102C4000EBE7012051080240891889021A88E2E75F
:102C5000CB78022B00D07CE0002A4CD106000E4B32
:102C6000503631882278C3185B18D200D2181388E6
:102C70009B059B0D138023693E2B21D91F201840F3
:102C8000474278415909091A1088890208430849BE
:102C9000014389B21AE0C04602040000BF8FFFFF63
:102CA0008080FFFF8F8FFFFF8081000006040000FF
:102CB0000080FFFF8F8EFFFF8FBFFFFF808000002F
:102CC000002B2BD180201188000201431180524932
:102CD0003088227869180918D2005218118889059D
:102CE000890D11803E2B20D8002B2BD180211388F9
:102CF00009020B431380E369002B8FD023784749E7
:102D00009B00EB181A880A408A4202D0002A00D0A1
:102D100084E743491A880A40424990E7012158084C
:102D20001940401880021188B2E71F20590903405A
:102D300058424341C91A1388890219433A4B0B433D
:102D40009BB2D7E7012059080340C91889021388AC
:102D5000F5E70120834200D047E68B69096900202E
:102D60008B4201D9581A0B00A061002A00D055E708
:102D70002E002E4950363088227869180918D20062
:102D8000521811888905890D11803E2B0CD91F20FE
:102D90001840474278415909091A108889020843A6
:102DA0002149014389B205E0002B19D18020118807
:102DB00000020143118018493088227869180918E7
:102DC000D200521811888905890D11803E2B0ED82A
:102DD000002B19D18021138809020B4313801DE7B2
:102DE000012158081940401880021188D9E71F2096
:102DF0005909034058424341C91A138889021943AB
:102E0000094B0B439BB2E9E7012059080340C9185D
:102E100089021388F5E7C046060400004040000020
:102E20008F8FFFFFC08000000080FFFF02040000C2
:102E3000F0B580255C08ED00521926000D008018C1
:102E4000471A7A19002E07D1640000190919DB0707
:102E500001D503880B70F0BD1288013E92B22A7032
:102E6000120A6A700235ECE7AF239B00C35870B5B5
:102E7000002B0ED0AE22802592008458AD00605DFC
:102E8000FF2806D0044A9B682100A25C9847FF23D4
:102E90006355002070BDC04601020000432303803B
:102EA00000487047440000204323038000487047D7
:102EB000880000204323038000487047D80000208A
:102EC0000A23038000487047CC00002070B5AE266E
:102ED000B6000400855900F059FF83239B00E85099
:102EE000A3590220002B0AD0832381229B00E918DA
:102EF000B033E3589200DB68A8589847002070BDB3
:102F0000AE23F7B59B00C35805000F0002200193C4
:102F1000002B18D01426B0234E43AE19F0699B0045
:102F2000EB58002810D028224A439B18996BFDF7D4
:102F30008FF90C1E08D10B000A00F161280039003E
:102F400000F012FF2000FEBD85230020019A9B00A7
:102F5000D050F8E7AE23F7B59B00C7586B466A46DA
:102F60000E00591D002305000B70D3803378901D8F
:102F70001C006022144013422AD0202C46D1F48831
:102F80007078002C1CD05BB2002B0EDAAF239B00B4
:102F9000EB58220039009B68984739002800F288D6
:102FA00000F0A6FC00242000FEBD80239B00F85406
:102FB000194B220039002800FC5400F0AFFCF1E767
:102FC000AF239B00EB58220031009B689847EAE74B
:102FD00073780A2B0ED00B2B13D0002B16D1A723FE
:102FE0009B00EB5C032B11D102220100280000F0B2
:102FF0007FFCD8E7A7239B00EB5C032B06D10122C3
:10300000F4E7A7239B00EB5C032BCCD03100280016
:1030100000F046FC0224C6E70102000070B504007F
:103020000025812100F067FE01212000E56200F00B
:1030300062FE2300AE26FC331D6782212000B6000D
:1030400000F059FEA3592564AB4208D0AF239B0082
:10305000E3585B689847A05900F0A4FEA5510020F2
:1030600070BDF8B5037C0400002B3AD18023812188
:103070009B00022200F033FE01218023E1629B00CD
:103080000222200000F02BFE23000126FC33032245
:1030900082211E672000082300F021FE872026647D
:1030A000800000F07BFEAE239B0005003700E0505F
:1030B000002814D00433E3581B6898478523002266
:1030C0009B00EA500433EA508122277C9200002FB3
:1030D00010D131002000AA58183B00F04EFE3800F5
:1030E000F8BD40238121022200F0F9FD0121402397
:1030F000E162C5E7402331002000AA5800F03DFE00
:103100000027ECE703000220002903D0AF220020B3
:10311000920099507047AE239B00C35882208000D4
:1031200019508421890000205A507047AE239B001B
:10313000C258B43B0020D1507047AE239B00C25808
:1031400010B50223002A12D0852189005458013B72
:10315000002C0CD1535084239B00D3580C39525867
:1031600088390363FF399BB200F0FEFD230018008D
:1031700010BDAE239B00C35810B50224002B0AD00B
:103180008122047C92009A58002C06D180230121D0
:103190009B0000F0F2FD200010BD4023012100F053
:1031A000ECFD0024F7E7022310B5002813D0AD236F
:1031B0009B00C458002C01D00024C450002902D028
:1031C000AC239B00C150A72301219B00C154027076
:1031D00000F03CFD0023180010BD03000220002970
:1031E00003D0AD22002092009950704710B500F036
:1031F0006DFD002010BDAD239B00C25810B5022309
:10320000002A04D013689847431E984143001800D1
:1032100010BDAD2310B59B00C3585B6898470020D4
:1032200010BD0000AA239B0070B5C518040028003B
:1032300000F022FBA52301229B00E250114BE25A31
:10324000163BE2501033E15C1F230B40012B09D0E9
:10325000022B0CD0002B0FD12900200000F01EF90A
:10326000002070BD2900200000F04EFAF8E7290088
:10327000200000F071FAF3E77F232000994300F06B
:1032800043FDEDE7AE02000070B50D000400110033
:10329000002D2ED1A5239B00C258032A22D1020063
:1032A0005532FF32D368106983420AD91B1AD360A2
:1032B00082B2984200D99AB2200000F03FFB280069
:1032C00070BDAD239B00E3581B69002B06D0A722DD
:1032D0009200A25C032A01D120009847200000F050
:1032E00035FBECE7052AEAD12900C55000F00CFDBA
:1032F000E5E7AD239B00C3589B69002B08D0A722AC
:103300009200825C032A03D1290098470025D6E762
:103310000225D4E7F8B50D0004001100002D4DD1B1
:10332000A5239B00C358022B41D1036A466AB342CE
:1033300013D99B1B03629AB200F0E8FA2B002A0013
:103340002900200000F019FDA8239B00E25C012A5F
:1033500001D10022E2542800F8BDC76931003800CD
:10336000FCF776FF00290DD1BE420BD8A626B60089
:10337000A3599F4206D22A002900200000F0C6FA75
:10338000A551DBE7AD239B00E358DB68002B06D09B
:10339000A7229200A25C032A01D120009847802135
:1033A000200000F0B1FC200000F0DCFACCE70422A1
:1033B0009343C9D1802100F0A7FCC5E7AD239B0052
:1033C000C3585B69002B08D0A7229200825C032AB5
:1033D00003D1290098470025BDE70225BBE700225D
:1033E00070B504001100402300F079FC2300012592
:1033F0004026FC338021DD659E66002233002000DC
:1034000000F06DFCA72300219B00A5616662E554D6
:10341000083BE15010336160E1501433E3588B42B4
:1034200005D0AD239B00E35820005B68984700203F
:1034300070BD017400207047A7239B00C15C034A44
:1034400081540422C25400207047C0469D020000EF
:10345000A7239B00C25C042A02D1024A825CC254A8
:10346000002070479D020000A72310B59B00C35C9D
:10347000032B06D1AD239B00C358DB69002B00D082
:103480009847002010BD10B50400802100F03CFCDE
:103490000021200000F038FC10BD000060220B78F5
:1034A00073B513400D001900921820390400114221
:1034B00012D0002B00D096E06878092800D992E05D
:1034C000FCF736FEF0000D0191000501910083002C
:1034D00012009100DA00A400AD239B00C35829001C
:1034E0009B689847002076BD00236A46D3806B888E
:1034F000180A0138062876D8FCF706FE0417267548
:1035000075404B00AC239B00E358207C1B686A4647
:10351000911D98476B46D988EA88002950D0002A27
:1035200043D1200000F012FADCE7AD23227C9B009F
:10353000E358002A06D19B6A6A46901D98470223E9
:103540004370E7E7DB6AF7E7D8B205284BD8AC232E
:103550009B00E358FCF7D8FD03080A0C0E105B68CB
:10356000002B40D0207CD2E79B68F9E7DB68F7E7C7
:103570001B69F5E75B69F3E79B69F1E7237C002BA7
:1035800031D1AD236A469B00E358901D5B6B984791
:10359000C0E7237C002B26D1AD236A469B00E3586D
:1035A000901D1B6B98470723CAE70B1C914200D95B
:1035B000131C69469AB2CB800100200000F098F9F4
:1035C000EB88002B00D08DE7ABE7AB88002B0AD14E
:1035D000EB88002B07D16E887F2E04D8A725AD007D
:1035E000635D032B03D12000FFF74DFF7AE7444BC7
:1035F000F1B2E154200000F0AEFB200000F0A6F98B
:103600000223002E00D1012363556BE7A9783D4DBD
:1036100029700129E7D8A7239B00E25C022A09D080
:10362000032A15D02000FFF72EFF20002978FFF78E
:10363000F0FD57E7002900D173E701210322616003
:10364000E2542000FFF7D7FD022800D069E7CAE75F
:10365000002906D102222000E2546160FFF7D9FD63
:103660005FE76168012900D15BE7C9B22000FFF77D
:10367000D0FD29786160E4E7EA88012AB3D1A72365
:103680009B00E35C022B06D8002BACD0002321006A
:10369000A360083102E0211D032BA4D1200000F01B
:1036A00027F91FE7A7239B00E35C013B022B9AD875
:1036B000EB88022B97D1A9239B00E2580323002A11
:1036C00000D1023B21000222E3600C31E6E76B8867
:1036D000012B00D006E7A9229200A35021E7A723DF
:1036E0009B00E35C013B022B00D97CE76B88012B3C
:1036F00000D0F7E6A92300229B00E25011E7C04664
:103700009E020000A002002060220B7870B51A40D3
:1037100004000D00402A01D05B0619D4A7239B00AA
:10372000E35C013B022B13D82B79012B10D8AD237E
:103730009B00E35829009B6820009847EB88002BEA
:1037400004D1002802D1200000F000F9002070BD53
:103750002000FFF798FEF9E770B50A7804000B0027
:10376000888860210A4015004918203D0D422BD061
:10377000002A39D15A78C1B2012A48D0032A2CD064
:10378000002A31D1A7239B00E35C022B59D0032BE5
:103790002AD10F2314220B405343E318000660D5AF
:1037A0009B69002B20D07F230B4001335343E51846
:1037B00000204B0604D0200000F0B8FA431E9841C8
:1037C00002222900286048E0AD229200A258190088
:1037D000200092689047002070BDA7229200A25C52
:1037E000022A24D0032A03D02000FFF74CFEF2E780
:1037F0005A88002A07D14A0605D0DB88002B02D15F
:10380000200000F081FA200000F0A0F8E3E7A722F2
:103810009200A25C022A0AD0032AE5D15B88002B21
:10382000D9D14B06EFD0200000F077FAEBE74B063A
:10383000DAD0200000F068FA8021200000F064FA5D
:10384000C9E74906D0D121005531FF31000601D525
:103850004139FF39002302220B60200000F048F8B4
:10386000B9E7FC33DB6D002BBED07F230B405A43FE
:103870005532FF32A5189BE70B7803704B784370E5
:10388000CA788B7812029B1843804A790B7912020E
:103890009B188380CA798B7912029B18C38070476A
:1038A00010B50400802100F02FFA0021200000F064
:1038B0002BFA10BD70B50025461EA8420FD02B0074
:1038C0000135745D002CFAD1DBB201335B0013804B
:1038D0000B7003234B70013B0578002D00D170BDA8
:1038E0005A1CCD54D2B202330130DBB28C54F3E710
:1038F0001300A52210B50224920084500A00C3616F
:103900000021036200F030FA002010BD10B5130052
:103910000A00002100F028FA002010BD1300A522A3
:1039200010B50324920084500200FC3213665366E3
:103930000A00002100F021FA002010BD10B513008C
:103940000A00002100F019FA002010BDA52304226E
:103950009B0010B5C25000231A00190000F004FAB1
:10396000002010BDA52305229B0010B5C2500023E6
:103970001A00190000F001FA002010BD10B5114C1A
:10398000002220001049FFF70EFC002801D0FCF7B0
:10399000DBFD20000D49FFF720FC002801D0FCF7DB
:1039A000D3FD20000A49FFF7ADFB002801D0FCF74A
:1039B000CBFD2000FFF71AFC002801D0FCF7C4FD66
:1039C00010BDC046A40200202C0100200C000020E5
:1039D0001C010020002070470020704710B5054CE6
:1039E00001002000FFF7A2FB2000FFF7C2FB002030
:1039F00010BDC046A402002010B5064C00222000D5
:103A00000549FFF788FB20000449FFF78FFB0020E2
:103A100010BDC046A4020020E80500206805002073
:103A20000A00AE2110B5084C890003006058A43983
:103A300041580120002906D119002000FFF76BFB37
:103A40002000FFF77AFB10BDA402002012230148DA
:103A50000B80704748010020042301480B80704709
:103A60005C0100200023F0B51F00060FF5B22C000A
:103A70003734092E00D8073C0133DBB20C704F708D
:103A8000000102319A42F0D1F0BD00001A2370B556
:103A90000B800B4B0B4C18680B4B1B68C018002895
:103AA0000BD00A4B0822A11C1D68FFF7DBFF210089
:103AB000042228001231FFF7D5FF200070BDC04658
:103AC000ACF7FF1F60010020B4F7FF1FB0F7FF1F26
:103AD00010B5044C0A0021000348FFF7EBFE20005C
:103AE00010BDC04668060020F24C000810B5044C1A
:103AF0000A0021000348FFF7DDFE200010BDC0468C
:103B000068060020024D000810B5044C0A00210090
:103B10000348FFF7CFFE200010BDC0466806002016
:103B20000B4D000810B5044C0A0021000348FFF7B4
:103B3000C1FE200010BDC04668060020164D0008DA
:103B400003000220032B01D8014AD05C7047C04615
:103B5000244D000807B50B4B02689A4211D1802111
:103B6000094B0904DA691F200A43DA610022DB6984
:103B70000B4001931100019BFDF792F81F20FDF708
:103B8000B9F807BD005C004000100240AC2310B53E
:103B90009B00C1184033C058FFF744FB10BD2823D9
:103BA0004B43C3187D33FF331A68BC2310B59B0009
:103BB000C058FFF769FB10BD28234B43C318DA6BCD
:103BC000BC2310B59B00C058FFF7A4FB10BDBC235D
:103BD00010B59B00C058FFF747FC10BD836870B557
:103BE0000400022B01D0FCF7AFFCBC25AD00012185
:103BF0006059FFF71EFC6059FFF7F1FB70BD000034
:103C0000BC2310B504009B00C058FFF715FCA36946
:103C1000002B04D00623024A11690B43136110BD27
:103C200000ED00E0836910B50400002B06D00621EA
:103C3000054A13698B431361FCF710FBBC239B00FF
:103C4000E058FFF705FC10BD00ED00E0BC2370B5A7
:103C500004001C489B00C4501B4BB0250360082384
:103C60004360063B836003610023AD0060518361C4
:103C7000C3610362FDF716FA002801D0FCF764FC6B
:103C80000022605911001823FEF765F86059582387
:103C900000228021FEF75FF86059C02300228121B5
:103CA000FEF759F888236059002201215B00FEF7D6
:103CB00052F880236059002282215B00FEF74BF806
:103CC000002070BDE8060020005C0040B02310B565
:103CD0009B00C058FDF750FAFFF732FF10BD10B53A
:103CE00014001A002300B024A4000059FDF73EFF81
:103CF000FFF726FF10BDB02310B59B00C058FDF79D
:103D000062FFFFF71DFF10BDB02310B59B00C05828
:103D1000FDF7C7FFFFF714FF10BDB02310B59B00E0
:103D2000C058FDF7EAFFFFF70BFF10BDB0234AB202
:103D30009B00C358002A07DA7F2211400131573A0D
:103D40004A439B189878704728224A439B186B3344
:103D5000FF331878F7E7B02310B59B00C058FDF784
:103D60001EFAFFF7EDFE10BD10B5B024A4000059F7
:103D7000FDF77AFFFFF7E4FE10BD10B5B024A400F4
:103D80000059FDF747FFFFF7DBFE10BDB02310B56C
:103D90009B00C058FDF75FFF10BD00000048704752
:103DA000DC09002070470000002310B50400036008
:103DB0004360836081814366C281036143618361A3
:103DC000190008225C3000F00FF90B4B246263628B
:103DD0000A4BA3620A4BE3620A4B23630A4B9C42E1
:103DE00005D00A4B9C4202D0094B9C4203D12000D3
:103DF000583000F079F910BD513F0008793F0008B4
:103E0000B13F0008DD3F0008FC0B0020640C0020DF
:103E1000CC0C002010B5034A0349044800F06CF8AC
:103E200010BDC0467C01002089490008880100209F
:103E300041680B4B10B50400994201D000F0A4FD7D
:103E4000A168084B994202D0200000F09DFDE16876
:103E5000054B994202D0200000F096FD10BDC046EF
:103E6000FC0B0020640C0020CC0C002010B5094B8A
:103E7000094A04211A6009480022FFF795FF012230
:103E800009210748FFF790FF022212210548FFF79A
:103E90008BFF10BD340D0020153E0008FC0B0020E8
:103EA000640C0020CC0C002010B5024800F01DF975
:103EB00010BDC0463D0D002010B5024800F016F9B7
:103EC00010BDC0463D0D002010B50400FFF7ECFF0B
:103ED000236A002B02D0FFF7EFFF10BD044B2362D3
:103EE000044B1B68002BF6D1FFF7C0FFF3E7C04679
:103EF000313E0008340D0020F7B514000026009074
:103F00000191A5686768013F04D52468002CF8D1A9
:103F10003000FEBDAB89012B08D90E22AB5E013308
:103F200004D029000098019B984706436835EAE7CA
:103F30000FB407B5054904AB086804CB8168019349
:103F400000F0FCF903B008BC04B01847D40100200D
:103F500070B50C000E25495F00F074F8002803DBF3
:103F6000636D1B18636570BDA389024A1340A3816A
:103F7000F9E7C046FFEFFFFFF8B51F008B8905008A
:103F80000C001600DB0505D50E23C95E00220223B6
:103F900000F044F8A389054A28001340A3813200A9
:103FA0000E23E15E3B0000F061F8F8BDFFEFFFFF7C
:103FB00070B50C000E25495F00F030F8A389421C53
:103FC00003D1054A1340A38170BD802252011343DF
:103FD000A3816065F8E7C046FFEFFFFF10B50E2331
:103FE000C95E00F009F810BD03008218934200D1A9
:103FF000704719700133F9E7002370B5064D0400CE
:1040000008002B60FCF72DFB431C03D12B68002B11
:1040100000D0236070BDC046380D002070B504008C
:10402000080011001A000023054D2B60FCF723FB4C
:10403000431C03D12B68002B00D0236070BDC04609
:10404000380D002070B50400080011001A0000238C
:10405000054D2B60FCF7F8FA431C03D12B68002BAD
:1040600000D0236070BDC046380D002070B504003C
:10407000080011001A000023054D2B60FCF75CFAC4
:10408000431C03D12B68002B00D0236070BDC046B9
:10409000380D0020014B18687047C046D40100203D
:1040A00070B500260C4C0D4D641BA410A64209D11E
:1040B000002600F0E3FD0A4C0A4D641BA410A64242
:1040C00005D170BDB300EB5898470136EEE7B30059
:1040D000EB5898470136F2E75C4D00085C4D00084C
:1040E000604D00085C4D0008704770477047000045
:1040F00070B50500002910D00C1F2368002B00DAD2
:10410000E418280000F0E2F81D4A1368002B05D1DE
:1041100063601460280000F0E1F870BDA34208D984
:10412000206821188B42F3D119685B680918216057
:10413000EEE71A005B68002B01D0A342F9D91168A1
:104140005018A0420BD12068091850181160834202
:10415000E0D118685B68411811605360DAE7A0424B
:1041600002D90C232B60D5E7206821188B4203D19C
:1041700019685B680918216063605460CAE7C0462B
:10418000400D002070B50F4E0D003168040000296D
:1041900002D100F0CBFC30602900200000F0C6FC0A
:1041A000431C0AD00323C51C9D43A84207D0291AEB
:1041B000200000F0BBFC013001D101256D42280038
:1041C00070BDC046440D0020F7B50322CB1C9343BD
:1041D000083306001F000C2B38D20C27B94237D801
:1041E000300000F073F8384B00931B681C00002C63
:1041F00033D139003000FFF7C5FF0400431C5ED106
:10420000009B1C682500002D4ED1002C51D0236846
:104210002900E3183000019300F088FC019B8342E1
:1042200047D123683000FF1A3900FFF7ABFF013098
:104230003FD02368DB192360009B1B68002B40D014
:104240005A68A24233D100225A6014E0002BC5DA2A
:104250000C23002533602800FEBD2168C91B20D433
:104260000B2918D9E2192760A34212D1009B1A60CA
:104270006368116053603000250000F02FF80722BA
:104280000B35231D9543EA1A9D42E4D05B1BA350D6
:10429000E1E75A60ECE76268A342D5D1009B1A605F
:1042A000E9E723006468A2E72C006D68ABE7130020
:1042B000C4E70C233000336000F010F8CBE7276030
:1042C000D9E75B60FFDEC046400D002010B5024814
:1042D000FFF70BFF10BDC0463C0D002010B5024893
:1042E000FFF704FF10BDC0463C0D0020936810B5D9
:1042F000013B9360002B04DA9469A34207DB0A298F
:1043000005D01368581C10601970080010BD00F02B
:1043100066FB0100F9E7F8B506000F001400D51898
:10432000AC4201D1002007E021783A003000FFF7CD
:10433000DDFF0134431CF3D1F8BD0000F0B5A1B09E
:104340000F0015001E000390002804D0036A002B04
:1043500001D1FFF7B9FD7B6EDB0705D4BB899B0557
:1043600002D4B86DFFF7C1FEBB891B0702D53B69BC
:10437000002B13D13900039800F074FB00280DD0F6
:104380007B6EDB0703D50120404221B0F0BDBB8925
:104390009B05F8D4B86DFFF7A9FEF4E7002308AC3D
:1043A0006361203363761033A37607962E0033784B
:1043B000002B01D0252B48D1731B0593AE420BD0A7
:1043C0002A0039000398FFF7A6FF013000D1AFE0C3
:1043D0006369059A9B1863613378002B00D1A7E0CD
:1043E000012200235242626004A954325218751C03
:1043F0002360E360A3601370A365594B0522180086
:104400002978059300F0A4FB6E1C00281FD12268B8
:10441000D30604D5532304A95B1820211970130770
:1044200004D5532304A95B182B2119702B782A2B50
:1044300016D02E0000210A20E3683278751C303A2D
:10444000092A4ED9002911D117E00136AFE7059BA3
:104450002268C01A01238340134335002360CCE750
:10446000079B191D1B680791002B01DB0B9304E0D0
:104470005B42E36002231343236033782E2B0AD17F
:1044800073782A2B35D1079B02361A1D1B680792B9
:10449000002B2BDB0993334D03222800317800F0E9
:1044A00057FB002806D04023401B8340226801367A
:1044B00013432360317806222B48751C217600F0C7
:1044C00047FB002843D0294B002B25D10722079B0F
:1044D00007339343083307936369049A9B18636116
:1044E00064E743432E0001219B18A6E701235B42AA
:1044F000D0E700230A201A00013663603178751C6A
:104500003039092903D9002BC5D00992C3E74243AA
:104510002E0001235218F1E707AA009221003A0069
:10452000134B039800E000BF0490049B0133D3D1E8
:104530007B6EDB0705D4BB899B0502D4B86DFFF702
:10454000D5FDBB895B0600D51DE70D981DE707AAC1
:10455000009221003A00064B039800F07BF8E3E755
:10456000284D00082E4D0008324D000800000000C4
:1045700017430008F7B5160001938A680B690C0011
:104580000090934200DA1300220033604332127825
:10459000002A01D00133336023689B0602D53368BB
:1045A000023333602268062315001D401A4227D0CB
:1045B000230043331B785A1E93412268920630D45D
:1045C000220001990098089D4332A847013025D068
:1045D0000622236800251340042B05D13368E568C3
:1045E000ED1AEB43DB171D40A3682269934201DDFE
:1045F0009B1AED180026B54220D1002010E00135AD
:10460000E36832689B1AAB42D2DD22000123019994
:104610000098089F1932B8470130F0D1012040427C
:10462000FEBD3020E1184331087021005A1C45318D
:104630000978A218433202331170C1E72200012326
:1046400001990098089F1A32B8470130E6D0013628
:10465000D1E70000F0B58BB006920A004332079311
:10466000059004920A7E0C00109B782A09D8622AD1
:104670000BD8002A00D1BEE07C490391582A00D112
:1046800093E026004236327022E01000633815288D
:10469000F7D8FBF743FD16001F00F6FFF6FFF6FF05
:1046A000F6FF1F00F6FFF6FFF6FFF6FFA300360049
:1046B0008300F6FFF6FFB400F6FF3600F6FFF6FFC4
:1046C000870026001A684236111D1960136833707E
:1046D0000123A2E018680968021D0D060BD50568C4
:1046E0001A60002D03DA2D23049A6D4213705F4B7C
:1046F0000A2703931BE005681A604906F1D52DB21D
:10470000EFE70D681968081D18602E0601D50D68C1
:1047100003E06D06FBD50D68ADB2544B082703933B
:104720006F2A00D002372300002243331A706368D7
:10473000A360002B03DB042122688A432260002D42
:1047400002D1049E002B0CD0049E28003900FBF7F8
:104750007FFD039B013E5B5C33702B0005009F4295
:10476000F3D9082F09D12368DB0706D562682369CE
:104770009A4202DC3023013E3370049B9B1B236171
:10478000079B210000930598069B09AAFFF7F2FEFC
:10479000013047D1012040420BB0F0BD2022096812
:1047A0000A432260782232490391210045310A7080
:1047B0001968226820C9100602D4500600D5ADB28F
:1047C0001960D30702D52023134323601027002D3F
:1047D000A9D12022236893432360A4E71A680D68B7
:1047E000101D4969186013682E0601D5196002E092
:1047F0006D06FBD519800023049E2361C0E71A686B
:10480000111D1960166800213000626800F0A0F9DF
:10481000002801D0801B6060636823610023049A34
:104820001370ADE73200236906990598079DA847E4
:104830000130AFD023689B0715D4099BE0689842EC
:10484000AADA1800A8E72200012306990598079E16
:104850001932B04701309DD00135E368099A9B1A9F
:10486000AB42F0DCE9E70025F7E7C046394D000828
:104870004A4D0008F7B58B8905000C001A075CD477
:104880004A68002A04DC0A6C002A01DC0020FEBD14
:10489000E76A002FFAD0002280202E682A601A00D2
:1048A0004001216A0240034234D0606DA3895B0756
:1048B00006D56368C01A636B002B01D0236CC01A45
:1048C000020000232800E76A216AB847A289431C36
:1048D00006D129681D292CD82A4B0B41DB0728D487
:1048E0000023636023692360D20405D5431C02D1F1
:1048F0002B68002B00D16065616B2E600029C5D04C
:1049000023004433994202D02800FFF7F1FB002036
:104910006063BCE701232800B847431CC6D12B685D
:10492000002BC3D01D2B01D0162B01D12E60ADE77B
:10493000A28940231343A381A9E70E69002EA5D0C5
:104940000F680E60BA1B019200229B0700D14A69D2
:10495000A260019B002B99DDA36A32001F00280092
:10496000019B216AB847002806DC40230120A28968
:1049700040421343A3818AE7019B36181B1A019317
:10498000E7E7C046FEFFBFDF0B6970B505000C000E
:10499000002B02D10025280070BD002804D0036A36
:1049A000002B01D1FFF790FA0C22A35E002BF1D06F
:1049B000626ED20704D49B0502D4A06DFFF795FB6D
:1049C00028002100FFF756FF636E0500DB07E2D4E5
:1049D000A3899B05DFD4A06DFFF788FBDBE7F8B563
:1049E00006000D001400002804D0036A002B01D13A
:1049F000FFF76AFAA369A360A3891B0728D5236977
:104A0000002B25D023692068EFB2C01A6369EDB28C
:104A1000834205DC21003000FFF7B6FF00281DD1DE
:104A2000A3680130013BA36023685A1C22601F70F9
:104A30006369834204D0A389DB0707D50A2D05D11A
:104A400021003000FFF7A0FF002807D12800F8BDA3
:104A50002100300000F006F80028D3D001256D4277
:104A6000F4E70000304B70B5050018680C00002812
:104A700004D0036A002B01D1FFF726FA0C23E25E73
:104A800093B2110723D4D90607D4092301202B6040
:104A900037331343A381404270BD5B0713D5616B6D
:104AA000002908D023004433994202D02800FFF7A0
:104AB0001FFB002363632422A3899343A381002364
:104AC0006360236923600823A2891343A3812369B8
:104AD000002B0BD1A0218022A389890092000B40DA
:104AE000934203D02100280000F066F80C22A35E58
:104AF00001201A0099B2024003420FD00022A260A6
:104B000062695242A261002022698242C4D1090630
:104B1000C2D540221343A3810138BDE7880700D4E2
:104B20006269A260EFE7C046D4010020002370B59F
:104B3000064D040008002B60FBF7A0FD431C03D1C9
:104B40002B68002B00D0236070BDC046380D0020BC
:104B5000C9B28218904201D10020704703788B427D
:104B6000FBD00130F6E7000070B50E001D000E23EB
:104B7000C95E140096B000290CDAB28980231100B6
:104B800019401A4213D00021403B002029602360C5
:104B900016B070BD6A4600F04DF80028EDDBF0233A
:104BA00001991B021940034BC9184B4259418023FC
:104BB000DB00EAE700E0FFFFF7B502268B8905007E
:104BC0000C00334206D023004733236023610123C6
:104BD0006361F7BD6A4601ABFFF7C6FF00990700A6
:104BE0002800FFF7F1FA002808D10C22A35E9A05ED
:104BF000EFD4032293431E43A681E4E78023A289D6
:104C000020601343A381009B20616361019B002B03
:104C10000CD028000E23E15E00F01EF8002805D01D
:104C20000323A2899A43023B1343A381A3893B43F5
:104C3000A381CEE7002370B5064D040008001100E3
:104C40002B60FBF711FD431C03D12B68002B00D018
:104C5000236070BD380D0020002370B5064D0400A0
:104C600008002B60FBF705FD431C03D12B68002BCC
:104C700000D0236070BDC046380D0020F8B5C04696
:104C8000F8BC08BC9E467047F8B5C046F8BC08BCE6
:044C90009E46704785
:104C940055444C523A20253031642025303164206B
:104CA400253031642025303164204C523A2025309F
:104CB40034642055443A20253034640D0A00000041
:104CC40000000000000001020304060708090203B3
:104CD4000405060708090A0B0C0D0E0F101001023B
:104CE400030405060708090A0B0C0D0E0F10526188
:104CF40064696F6175746F6D6174796B61004D38AF
:104D04003830204A58590043444320436F6E666943
:104D1400670043444320496E7465726661636500AD
:104D240000020102232D302B2000686C4C006566C4
:104D340067454647003031323334353637383941E8
:104D440042434445460030313233343536373839FE
:084D5400616263646566000002
:044D5C00E900000862
:044D6000C100000886
:104D640000127A0001000000040000006330000813
:104D74001D300008552F000800000000692E0008AF
:104D8400012F0008CD2E00080000000000000000E4
:104D940000000000A92E00089D2E0008B52E000872
:104DA400C12E000809024300020100C032090400B8
:104DB4000001020201000524001001052401000184
:104DC40004240202052406000107058203080010DA
:104DD40009040100020A0000000705010240000066
:104DE400070581024000000009024300020100C0DF
:104DF400320904000001020201000524001001052B
:104E0400240100010424020205240600010705828E
:104E14000308001009040100020A0000000705014C
:104E24000200020007058102000200000A060002D7
:104E3400000000400100000009074300020104C013
:104E440032090400000102020100052400100105DA
:104E5400240100010424020205240600010705823E
:104E64000308001009040100020A000000070501FC
:104E7400024000000705810240000000F9390008E3
:104E8400D5390008D9390008DD3900084D3A000841
:104E9400593A0008D13A0008ED3A00088D3A000862
:104EA400093B0008253B00081201000202020040F1
:104EB40083044057000201020301000004030904B3
:104EC4001A030000000000000000000000000000C1
:104ED40000000000000000000000000000000000CE
:104EE40003000000FC0B002000000000FC0B00206D
:104EF400640C0020CC0C0020000000000000000026
:104F0400000000000000000000000000000000009D
:104F1400000000000000000000000000000000008D
:104F2400000000000000000000000000000000007D
:084F34000000000088010020CC
:04000005080006C128
:00000001FF
