:020000040800F2
:1000000000180020150700086106000863060008B4
:1000100000000000000000000000000000000000E0
:10002000000000000000000000000000650600085D
:1000300000000000000000006706000869060008D4
:100040009507000895070008950700089507000820
:100050009507000895070008950700089507000810
:100060009507000875060008950700089507000821
:1000700095070008950700089507000895070008F0
:100080009507000800000000000000009507000828
:100090000000000095070008950700089507000874
:1000A0000000000095070008950700089507000864
:1000B0009507000800000000950700088506000865
:1000C00010B5064C2378002B07D1054B002B02D02E
:1000D000044800E000BF0123237010BDD8010020B8
:1000E0000000000084590008044B10B5002B03D019
:1000F0000349044800E000BF10BDC04600000000F6
:10010000DC0100208459000803B47146490840000E
:100110004900095E49008E4403BC70470022430831
:100120008B4274D303098B425FD3030A8B4244D3BF
:10013000030B8B4228D3030C8B420DD3FF22090201
:1001400012BA030C8B4202D31212090265D0030BC0
:100150008B4219D300E0090AC30B8B4201D3CB03B6
:10016000C01A5241830B8B4201D38B03C01A5241F8
:10017000430B8B4201D34B03C01A5241030B8B42FA
:1001800001D30B03C01A5241C30A8B4201D3CB02E5
:10019000C01A5241830A8B4201D38B02C01A5241CA
:1001A000430A8B4201D34B02C01A5241030A8B42CD
:1001B00001D30B02C01A5241CDD2C3098B4201D3E5
:1001C000CB01C01A524183098B4201D38B01C01A63
:1001D000524143098B4201D34B01C01A52410309DA
:1001E0008B4201D30B01C01A5241C3088B4201D389
:1001F000CB00C01A524183088B4201D38B00C01A36
:10020000524143088B4201D34B00C01A5241411A5C
:1002100000D20146524110467047FFE701B5002069
:1002200000F006F802BDC0460029F7D076E7704717
:100230007047C046F0B5C64600B588B0142200210C
:1002400003A804F055FD224B5A69802189020A4314
:100250005A615A690A400192019A5A698021C90279
:100260000A435A615B690B400293029B194D0022BD
:100270000221280000F08BFF8023DB0098469026A7
:10028000F60500221900300000F081FF02230393DD
:100290000127049700240594069403A9280000F080
:1002A000B1FE4346039304970594069403A93000D6
:1002B00000F0A8FEF0235B0003930494059403A9C7
:1002C000280000F09FFE08B080BCB846F0BDC046D4
:1002D000001002400004004800B583B0094A51698B
:1002E000012319435161526913400193019B00227C
:1002F0000021092000F04EFD092000F07BFD03B035
:1003000000BDC0460010024010B5134B1B68022B05
:100310000AD0114B1B68282B0CD00F4A13680133ED
:100320001360312B0CDC10BD002202210B4800F0C1
:100330002EFFEEE70A490B48032200F091FBECE7A1
:10034000130000221A6001320221044800F01FFF4E
:10035000054B01221A60E6E79002002000040048E5
:10036000F4010020FC0100209402002010B50800D8
:10037000140091B204F0A0F9200010BD72B6FEE79F
:1003800000B585B00C22002101A804F0B1FC2C4876
:100390002C4B036080231B06436000238360C360F3
:1003A0000122026107324261037643768376C37687
:1003B000C222FF32C26103629E3AFF3A83548362D3
:1003C00000F08CFA00282ED10223019380235B01D8
:1003D0000293042303931A4801A900F0E3FB0028C9
:1003E00023D103230193164801A900F0DBFB002869
:1003F0001DD110230193124801A900F0D3FB00285E
:1004000017D1112301930E4801A900F0CBFB00285E
:1004100011D1122301930A4801A900F0C3FB00285F
:100420000BD105B000BDFFF7A9FFFFF7A7FFFFF74E
:10043000A5FFFFF7A3FFFFF7A1FFFFF79FFFC04650
:10044000FC0100200024014010B50748074B036061
:10045000002343606433C360836000F09FFE002884
:1004600000D110BDFFF78AFF80020020003000405D
:1004700000B599B0342200210BA804F039FC1022F9
:10048000002107A804F034FC1822002101A804F080
:100490002FFC28230B93273B139312930BA801F0F7
:1004A000ABFE002818D107230793043B08930023D1
:1004B00009930A93012107A802F07CF900280DD1C5
:1004C00080239B0201930023069301A802F014FAF3
:1004D000002805D119B000BDFFF750FFFFF74EFF10
:1004E000FFF74CFFF0B585B000F07EF9FFF7C0FFD5
:1004F000FFF7A0FEFFF7F0FEFFF742FF04F088F8D9
:10050000FFF7A2FF1D4800F0E9FB802190200122A7
:10051000C900C00500F03BFE28E0194B00221A601C
:10052000184C2021200000F02BFE05008021200027
:1005300000F026FE060080214900200000F020FE89
:1005400007004021200000F01BFE0F4B1A885B883B
:100550000E4C0293019200903B00320029002000D3
:1005600004F06AFB0121002001F036FE084800F08B
:1005700049FE034B1B68002BCFD1F3E7FC010020A1
:100580009402002000040048F40100209C59000857
:100590008002002082B00A4B9969012211439961BF
:1005A00099690A400092009ADA69802149050A4354
:1005B000DA61DB690B400193019B02B07047C046D2
:1005C0000010024010B588B004001422002103A8D6
:1005D00004F08EFB22681E4B9A4201D008B010BD79
:1005E0001C4B9A69802189000A439A619A690A40E2
:1005F0000192019A5A69802189020A435A615B6912
:100600000B400293029B0C230393093B049390201D
:1006100003A9C00500F0F6FC0F48104B036000234F
:10062000436083608022C260803202618022D200F7
:10063000426120228261C36100F02CFC002803D1BA
:10064000054B23635C62C9E7FFF798FEF8E7C046F5
:1006500000240140001002403C020020080002403B
:10066000FEE7FEE77047704710B500F0CDF8FFF7E2
:100670004BFE10BD10B5024800F06FFC10BDC04627
:100680003C02002010B5024801F07AFB10BDC046C4
:10069000E806002070B50C001600002504E000E01C
:1006A00000BF207001350134B542F8DB300070BD69
:1006B00001204042704780239B014B60002070471F
:1006C000012070470020704710B503000C4A0D4907
:1006D000521A0D490968002907D00B490868C31848
:1006E000934206D8084A136010BD074907480860BE
:1006F000F3E704F053FB0C23036001204042F3E7CF
:10070000001800200004000098020020480D00207E
:100710007047000013488546FFF7FAFF124801684A
:10072000090E124A914205D111481249016012483E
:100730001249016012481349134A002302E0D458B9
:10074000C4500433C4188C42F9D3104A104C00230F
:1007500001E013600432A242FBD304F025FBFFF753
:10076000C1FEFEE700180020040000001F0000008A
:1007700018100240010000000000014000000000CD
:1007800000000020D8010020D05A0008D801002025
:10079000480D0020FEE7000010B504000F4B19784B
:1007A000FA208000FFF7BAFC01000D4B1868FFF734
:1007B000B5FC00F02BFB00280DD1032C01D9012042
:1007C0000AE0013000222100404200F0E3FA054B2C
:1007D0001C60002000E0012010BDC0460400002085
:1007E000000000200800002010B5064A1368102100
:1007F0000B4313600320FFF7CFFFFFF7CBFE002072
:1008000010BDC04600200240034A1168034B1B780C
:100810005B1813607047C0469C0200200400002053
:10082000014B18687047C0469C02002030B583B069
:100830000400002301930368996803220A40012AF7
:1008400014D09968224A114218D19A6801210A43AA
:100850009A60204B18682049FFF760FC0190019BCB
:10086000002B15D0019B013B0193F8E71A68D207D2
:100870002BD4DA681204E4D5002024E0A36B102204
:100880001343A363E36B0F3A1343E36301201AE0BE
:10089000FFF7C6FF050023681B68DB0712D4FFF7CC
:1008A000BFFF401B0228F6D923681B68DB07F2D480
:1008B000A36B10221343A363E36B0F3A1343E36369
:1008C000012000E0002003B030BD0020FBE7C0465F
:1008D000170000800000002040420F0070B5041E89
:1008E00000D1B4E0836B002B00D180E0A36BDB066A
:1008F00000D5A6E023689A68042108001040114240
:1009000000D09EE0A26B53490A400631FF310A43F2
:10091000A263996803220A40012A6ED0DA6818217E
:100920008A43A1680A43DA60226813699B009B0826
:1009300061680B4313612268D36847490B40D36059
:10094000237E9B03627ED2031343A17E4A0313439B
:10095000A26A012A58D0802252011343E26813434D
:100960002269022A52D003432422A25C520013437C
:10097000E27E012A4CD0E269C221FF318A4202D0D4
:10098000216A0A4313432168CA681A43CA60E26AAB
:10099000802149058A420DD0012A0BD0022A09D0B4
:1009A000032A07D0042A05D0052A03D0062A01D03D
:1009B000072A0AD1206841690722914341612068D2
:1009C0004169E56A2A400A4342612268D2682349A4
:1009D0000A409A422BD0A36B12229343023A13434C
:1009E000A363E36B0F3A1343E36301202EE0C36379
:1009F00034228354FFF7E6FD78E71A68D2079AD4C9
:100A0000DA68120497D489E70200A6E70420AAE76F
:100A1000002903D1802252021343ACE7A26B2021AC
:100A20000A43A263E26B1F390A43E263A3E7002390
:100A3000E363A36B03229343023A1343A3630020AF
:100A400004E0A36B10221343A363012070BD0120B7
:100A5000FCE7C046FDFEFFFF1902FEFFE7FF3F83F4
:100A6000F8B504000D00160003689B685B073ED4D0
:100A70003423C35C012B3CD034230122C254437E77
:100A8000012B04D0FFF7D2FE071E2ED100E0002775
:100A9000A26B194B1A4080235B001343A36300230E
:100AA000E3633422A354236B144A9A62236B144ADF
:100AB000DA62236B134A1A6323681C221A602268C5
:100AC000536810210B4353602268D3680F390B43DE
:100AD000D36021684031206B33002A0000F002FA15
:100AE0002268936804210B4393603800F8BD022705
:100AF000FBE70227F9E7C046FEF0FFFF0D0B0008F9
:100B00007F0B00088B0B00087047000010B5436A8C
:100B10009A6B502111422BD1996B802292000A438B
:100B20009A631A68D068C0210901084213D1997EDE
:100B3000002910D1116809070DD5916849070ED415
:100B400051680C20814351609A6B0B490A40043173
:100B5000FF310A439A631800FFF7D6FF10BD9A6B66
:100B600020210A439A63DA6B1F390A43DA63F2E7FA
:100B70001B6B1B6B9847F1E7FEFEFFFF704710B53C
:100B8000406AFFF7FBFF10BD704710B5406A836BEA
:100B9000402213438363C36B3C3A1343C363FFF7A1
:100BA000F3FF10BD30B583B004000023019334334C
:100BB000C35C012B00D180E034230122C2540268BF
:100BC00093685B076BD448683D4B98424CD0936A5E
:100BD0000D680120A84003439362E36A8022520516
:100BE000934213D0013B062B10D9886822685569BF
:100BF00007232B40984209D050690723984350613E
:100C0000206842698D682B40134343610B681A00CA
:100C1000103A022A4DD82B4A1268102B0ED0112BF5
:100C200009D080235B041343264A13600B68102B02
:100C300007D0002038E08023DB03F4E780231B0487
:100C4000F1E7214B18682149FFF768FA030080009B
:100C5000C0184000019002E0019B013B0193019B01
:100C6000002BF9D100201FE0936A0D680120A840F5
:100C7000834393620B681A00103A022A1BD8114A68
:100C80001268102B09D0112B05D0114B13400D4ABF
:100C90001360002008E00F4BF8E70F4BF6E7836B7B
:100CA000202213438363012034230022E25403B043
:100CB00030BD0020F8E70020F6E70220F7E7C04645
:100CC00001100000082701400000002040420F00F2
:100CD000FFFFFFFEFFFFBFFFFFFF7FFF70B50400B8
:100CE0003423C35C012B50D034230122C254036847
:100CF000996802320A40012A05D11A68D2073ED407
:100D0000DA6812043BD4A26B21490A400631FF3154
:100D10000A43A263DE6801310E40DA688A43DA6072
:100D20002268916880231B060B439360FFF778FDD0
:100D3000050023689A68002A13DAFFF771FD401B4B
:100D40000228F6D923689B68002BF2DAA36B1222E3
:100D50009343023A1343A36334230022E254012055
:100D60000CE0DA683243DA60A36B03229343023A61
:100D70001343A363002034230022E25470BDA36B0D
:100D800020221343A3630120F5E70220F6E7C046C3
:100D9000FDFEFFFF70B5002811DB8308134DC03343
:100DA0009B005C5903221040C000FC3216008640B4
:100DB000B44389010A40824022435A5170BD0F2337
:100DC0000340083B9B0806339B00094A9446634452
:100DD0005C6803221040C000FC3215008540AC4323
:100DE00089010A40824022435A60E7E700E100E0BF
:100DF00000ED00E0002805DB1F2318401E3B834068
:100E0000014A13607047C04600E100E001388023CA
:100E10005B0498420FD2094A50600948036A1B02DA
:100E20001B0AC02109060B430362002393600733AA
:100E30001360002070470120FCE7C04610E000E08E
:100E400000ED00E070B5066CC56B0124B4406C6029
:100E5000046863604368102B04D0036899600368DA
:100E6000DA6070BD03689A600368D960F9E7000032
:100E700010B504000068054B9C4660441421FFF740
:100E80004DF980002064024BE36310BDF8FFFDBF05
:100E90000000024070B5041E20D0212502234355D6
:100EA00001680A680E4B1A40436880680343E06893
:100EB00003432069034360690343A0690343E06976
:100EC000034313430B602000FFF7D2FF0023A3630B
:100ED000012262551F32A354002070BD0120FCE79F
:100EE0000FC0FFFF70B504002020205C012832D025
:100EF0002020012525540130205C012804D0202326
:100F00000022E254022070BD20300135255400201B
:100F1000A063256828680126B04328602000FFF7F9
:100F200091FFE36A002B0BD0226813680E210B435C
:100F300013602268136801210B4313600020E2E76D
:100F4000226813680A210B4313602268136806396C
:100F50008B431360EDE70220D5E770B5C36B1A68C9
:100F600004682568016C04238B401A4212D06B0779
:100F700010D523689B0603D423680422934323607F
:100F8000016CC26B04238B405360C36A002B00D0FA
:100F9000984770BD02238B401A4218D0AB0716D574
:100FA00023689B0606D423680A22934323602123E7
:100FB000093AC254016CC26B02238B405360202358
:100FC0000022C254836A002BE3D09847E1E708234C
:100FD0008B401A42DDD02D07DBD523680E229343C8
:100FE0002360016CC26B01231C008C40546083633E
:100FF000212283541F330022C254036B002BC8D01C
:101000009847C6E7F0B583B0002356E086685F00D6
:101010000324BC40A643CC68BC403443846044688D
:1010200094434E683609012232409A40224342607E
:1010300053E0DE080836B600375805321A409200F1
:101040000F249440A7430C69944022003A43325045
:1010500056E0022600E00026A64034003C4302325F
:101060009200424E9451424A9768EA433E00AE4392
:101070004C68E40201D53E002E433D4CA660E76873
:101080003E0016404C68A40201D53E002E43384C69
:10109000E66067683E0016404C68A40301D53E0038
:1010A0002E43334C6660266832404C68E40301D519
:1010B0002A0032432E4C226001330C682200DA40B1
:1010C00051D001229A40250015401442F4D04E68B8
:1010D00003243440013C012C98D94C68032222405F
:1010E000032A08D0C4685E000322B24094438A6891
:1010F000B2402243C2604C6803222240022A98D0A8
:1011000004685E0003221700B740BC434F683A40B2
:10111000B240224302604C68C02292021442CBD0FB
:10112000144CA66901221643A661A46922400192CB
:10113000019A9A08941CA4000C4EA75903241C4041
:10114000A4000F26A640B7439026F605B04282D0F1
:10115000094EB04205D0094EB04200D179E70526CC
:101160007AE7012678E703B0F0BDC04600000140F1
:10117000000401400010024000040048000800483C
:1011800003690B4201D0012070470020FCE7002AD0
:1011900001D0816170478162FCE7000070B5041ED8
:1011A00028D00368144A1A600368144A1A60036856
:1011B00042685A60036882689A60FFF731FB050055
:1011C0002268D3685B070AD0FFF72AFB401B272859
:1011D000F6D92368DB685B07F2D003200BE01169C6
:1011E000E368994202D01361002004E0044B1360CD
:1011F000002000E0012070BDCCCC0000555500005F
:10120000AAAA00000368024A1A6000207047C0467C
:10121000AAAA000070B553043CD504685023E35AD1
:101220000D78EE009B191B19384CA44663441C88AA
:10123000A405A40D8B69A34222D31B1B8B618B6970
:10124000002B0CD10368AD005D192B88304E334064
:101250008026B6015E402F4B33439BB22B80520653
:101260000AD502680B789B00D21815882A4B1D40BE
:101270002A4B2B439BB21380002C04D1200070BD5D
:1012800000238B61DBE700680A894969230002F0CB
:101290007BFAF3E704685023E35A0D78EE009B19BC
:1012A0001B191F4CA44663441C88A405A40D8B691C
:1012B000A34227D31B1B8B618B69002B0CD10368C6
:1012C000AD005D192B88124E33408026B6015E407A
:1012D000104B33439BB22B8052060AD402680B7822
:1012E0009B00D21815880C4B1D400C4B2B439BB216
:1012F0001380002CC2D000684A894969230002F09B
:1013000043FABBE700238B61D6E7C0460204000026
:101310008FBFFFFF8080FFFF8F8FFFFFC080FFFF29
:101320000604000070B586B0041E66D0344BC35C62
:10133000002B07D0324B0322E254206801F08AFBD5
:1013400000221BE0AA239B000022C25403F074FA7F
:10135000F0E7501C83001918C900611801254D7071
:101360001918C9000A5563180025DD7093009918F3
:10137000C90061188D63CD630D64C2B2606882429A
:10138000E7D3002119E08A005318DB00E3181E00A0
:101390006A36FF3600253570013E317003363570F0
:1013A0000D3635607D33FF331D605218D200A21810
:1013B0008132FF3215600131C9B28842E3D820681A
:1013C000230010336A4662CB62C222CB22C261681C
:1013D000A268E36801F048FB24230022E254084B92
:1013E0000132E254E369012B02D0002006B070BD47
:1013F000200000F0DBFE0020F8E70120F6E7C04601
:10140000A902000070B50400AA239B00C35C012B55
:101410000DD0AA25AD0001234355006801F010FB53
:10142000206801F0F9FD00236355002070BD022003
:10143000FCE7000070B505000C001600530600D450
:10144000EEE002685023D35A0978C8001B189B1895
:10145000AB4A944663441A889205920DA36993425D
:1014600040D99B1AA361A369002B59D16378002B43
:101470003BD12B6850229A5A9B18C318A04A944615
:1014800063441A889205920D1A801A889D490A436E
:1014900092B21A802B686278002A33D150329A5A5D
:1014A0009A182378DB009B18974A944663441A885D
:1014B0009205920D1A801A8892490A4392B21A80B4
:1014C0002178280003F0F2F9760439D52A682378C8
:1014D0009B00D21811888D4B19408D4B0B439BB24A
:1014E00013802DE00023A361BDE7012BD2D12B682F
:1014F00050229A5A9B18C018814B9C466044002386
:101500000380C7E7012ADBD14F329A5A9B18227811
:10151000D200D3187C4A9446634400221A80CFE755
:10152000760409D52B68890059180888774B18402C
:10153000774B03439BB20B802423E35C012B0FD03A
:10154000296823789B00C9180B88724A13403022FF
:1015500053409BB2704A13439BB20B80002070BD76
:1015600063699B186361E3699B18E361216A2369DE
:10157000994221D3C91A21626278002A3AD12A6895
:101580005021515A51182278D20052185C498C4689
:10159000624411888905890D11803E2B18D959099B
:1015A000D80600D101391088890289B2084355490B
:1015B000014389B211801FE0002903D12423E154A3
:1015C0001300D9E700232422A35423620B00D3E79E
:1015D000002B05D111884B48014389B211800BE0E3
:1015E0005908D80700D501311088890289B2014312
:1015F000118001E0012A06D028689BB22289616926
:1016000001F018FD9CE72A685021515A51182278A0
:10161000D20052183A498C46624499B21180EBE7E5
:1016200002685023D35A0978C8001B189B18364A01
:10163000944663441A889205920DA369934241D35C
:101640009B1AA361A369002B68D16378002B3CD15E
:101650002B6850229A5A9B181B18294A94466344B7
:101660001A889205920D1A801A8826490A4392B266
:101670001A802B686278002A34D150329A5A9B180B
:101680002278D2009B18204A944663441A88920517
:10169000920D1A801A881B490A4392B21A80217847
:1016A000280003F003F9760400D549E72A68237877
:1016B0009B00D2181188154B1940154B0B439BB258
:1016C00013803DE70023A361BCE7012BD1D12B6838
:1016D00050229A5A9B181B18094A944663440022C8
:1016E0001A80C6E7012ADAD14F329A5A9B1822781B
:1016F000D2009B18044A9446634400221A80CEE725
:10170000020400000080FFFF060400008F8FFFFF2F
:1017100080C0FFFFBF8FFFFF8080FFFF760409D4EA
:101720002B68890059180888344B1840344B034300
:101730009BB20B802423E35C012B00D000E763699C
:101740009B186361E3699B18E361216A23699942ED
:1017500021D3C91A21622A686178002939D1503110
:10176000515A52182178C900521826498C466244B1
:1017700011888905890D11803E2B18D95909D80681
:1017800000D101391088890289B208431E490143FA
:1017900089B211801FE0002903D12423E1541300F2
:1017A000D9E7002323622422A3540B00D3E7002BA4
:1017B00005D111881448014389B211800BE0590802
:1017C000D80700D501311088890289B20143118000
:1017D00001E0012906D028689BB26289616901F0A5
:1017E00029FCADE64F31515A52182178C9005218E0
:1017F00004498C46624499B21180ECE78F8FFFFF59
:1018000080C0FFFF060400000080FFFFF8B5CE4651
:10181000474680B5040020684423C35A1BB2002BFE
:1018200000DB87E24423C35A99B20F221D00154002
:10183000134200D0CEE0C90664D503889AB21B05D6
:1018400000D591E012B2002AE5DA0388B84A1340C5
:10185000802213439BB2038020685023C35AB422D2
:101860005200A25CD2009B181B18B24A94466344F3
:101870001B889B059B0D22006932FF32D361002B30
:101880000ED0516900290BD01500D28801F07CFFE1
:10189000EA696B699B186B610021200002F0F7FF79
:1018A0002268138899B21B05B5D4C0239B01194047
:1018B0009942B0D05023D35AD2189E4B9C466244D2
:1018C00013889B059B0D138023006933FF331B692D
:1018D0003E2B6DD95909DB0600D1013913888902E5
:1018E00089B21943944B0B439BB2138021680B8838
:1018F000924A1340C02292015A40914B13439BB22B
:101900000B8088E702888F4B1A408B4B13439BB2A6
:10191000038021685023CB5A2822A25CD2009B1856
:101920005B18894A944663441B889B059B0D63643E
:10193000E26BD318E3630021200002F0B7FF2423F9
:10194000E35C002B00D166E7236C002B00D062E73C
:101950002422A35C2068802149420B43DBB2CC31B6
:1019600043520023A35456E75023C35AB4225200D3
:10197000A25CD2009B181B186E4A944663441B88D5
:101980009B059B0D22006932FF32D361AC21890097
:101990006118D28801F0F8FE2268138864490B4070
:1019A00080210B439BB21380200002F065FF32E7D9
:1019B000002B05D1138860490B439BB2138095E738
:1019C0005908DB0700D501311388890289B20B431E
:1019D00013808BE7AE00801903889FB21BB2002BE7
:1019E00045DB3B0600D416E76B1C9C469B00624619
:1019F0009918C9006118206880190688514A164054
:101A00004D4A324392B20280CB78012B00D105E1DE
:101A1000FB0500D589E120685023C35A6E1CB20033
:101A20009219D200165DF2009B181B18464A944684
:101A300063441A889205920DAB005B19DB00E31832
:101A40001F6C974200D85CE1AB005B19DB00E31828
:101A5000BF1A1F64AB005B19DB00E3181B6C002B83
:101A600000D055E13100200002F020FFD3E60388CA
:101A70002F4A1340802213439BB203807219D20075
:101A80006932FF329046A0447319DB00E3187533C6
:101A9000FF331B78002B59D120685033C25A731979
:101AA000DB00E3186933FF331B78DB00D3181B1806
:101AB000204A944663441B889B059A0D9146002B4F
:101AC00028D14946AA005219D200A2181000853028
:101AD000FF3003684B440360083803684B440360DD
:101AE0008132FF321368002B09D0AB005B19DB0099
:101AF000E3187933FF331B68994200D389E0AB00C8
:101B00005B19DB00E3186933FF331978200002F01A
:101B1000BEFE66E77319DB00E3181A006F32FF326E
:101B200012887D33FF3319684B4601F02DFEC8E75C
:101B30008F0F0000060400000080FFFF8FBFFFFF33
:101B40008080FFFF0F8FFFFF02040000AB005B19D6
:101B5000DB00E3186C33FF331B78022B34D0216891
:101B6000AB005B19DB00E3186933FF331A7892008E
:101B700089180888724A1040724A024392B20A8059
:101B800020681B789A0082181288520423D55022AC
:101B9000825ADB00D3181B186B4A944663441B8897
:101BA0009B059A0D9146002B8BD0AB005B19DB0097
:101BB000E3181A007132FF3212887D33FF3319683F
:101BC0004B4601F0E1FD7CE73A0041462000FFF77B
:101BD00021FB814675E75022825ADB00D3181B187F
:101BE0005A4A944663441B889B059A0D9146002BE4
:101BF00000D166E7AB005B19DB00E3181A00733213
:101C0000FF3212887D33FF3319684B4601F0BCFD6B
:101C100057E72068414601F021FAE2E6AB005B1984
:101C2000DB00E31800221A6434331B78002B1BD02E
:101C30007F0635D54B78002B1FD1236850229A5A46
:101C40009A1861468B005B18DB001B5DDB009B185C
:101C50003D4A944663441A889205920D1A801A8868
:101C60003B490A4392B21A806B1C9D00ED18ED00AF
:101C7000295D200002F01AFECDE5012BF4D1236886
:101C800050229A5A9A18691C8B005B18DB001B5D66
:101C9000DB009B182C4A9446634400221A80E3E739
:101CA0002268691C8B005B18DB00E3185B78002B53
:101CB00015D15033D35AD2188B005B18DB001B5D53
:101CC000DB009B18214A944663441A889205920DC2
:101CD0001A801A881E490A4392B21A80C4E7012B5F
:101CE000C2D14F33D35AD218691C8B005B18DB006A
:101CF0001B5DDB009B18154A9446634400221A8042
:101D0000B2E7AB005B19DB00E31800271F64A1E614
:101D1000AB005E19F600A619F76BBF18F763736C7A
:101D20009B18736401F09AF975E53A002000FFF7FB
:101D300081FB70E50020C0BCB946B046F8BDC04686
:101D40008F8FFFFFC080FFFF020400000604000029
:101D50000080FFFF70B50400AA239B00C35C012B29
:101D60000CD0AA25AD00012343552333C15400688C
:101D700001F04AF900236355002070BD0220FCE702
:101D800070B50400006801F051F9030418D443054C
:101D90001AD4430426D483042BD4C30430D40305BB
:101DA00051D4030600D565E0830500D590E0C00559
:101DB0001ED5216844228B5A4A4803408B5217E0B3
:101DC0002000FFF723FD13E0216844228B5A464888
:101DD00003408B52200002F07DFD00212000FFF720
:101DE000B9FF05E0216844228B5A404803408B52DA
:101DF00070BD216844228B5A3D4803408B52F7E75F
:101E000021684023CA5A04208243CA522168CA5A10
:101E100004308243CA52B8239B00E35C012B09D0F3
:101E2000200002F07BFD216844228B5A3148034098
:101E30008B52DDE7B8239B000022E25400212000F2
:101E400000F0C9F9ECE7216840228B5A08200343CF
:101E50009BB28B5220684421435A274D2B4043525A
:101E600021688B5A042003439BB28B52200002F05E
:101E700043FDBDE7216844228B5A802083438B5267
:101E8000B8239B00E35C002B1ED12168043A8B5AD7
:101E9000042003439BB28B5221688B5A08200343D2
:101EA0009BB28B52B8239B003F3AE25422685423E2
:101EB000D25A9208183B1340B9229200A350012134
:101EC000200000F088F993E7200002F015FD8FE76D
:101ED000216844228B5A094803408B52200002F0AB
:101EE000F2FC85E7FFFEFFFFFFFBFFFFFFBFFFFFE9
:101EF000FFDFFFFFFFEFFFFFFFF7FFFFFFFDFFFF2C
:101F000070B504000D0049B2002925DB07262E40DC
:101F1000B0008119C9006931FF3161188019C00012
:101F200020186A30FF30002606700720284008700D
:101F30000A61CB70022B19D0AA239B00E35C012B12
:101F400017D0AA25AD0001236355206800F09CFD41
:101F500000236355002070BD07262E400136B000D7
:101F60008119C900611801264E70DEE700230B714C
:101F7000E2E70220EFE770B504000A004BB2002B45
:101F800021DB0720084083001918C9006931FF319F
:101F900061181B18DB00E3186A33FF330020187048
:101FA000072313400B70AA239B00E35C012B14D082
:101FB000AA25AD0001236355206800F0F9FE002337
:101FC0006355002070BD07200840013083001918B8
:101FD000C900611801204870E2E70220F2E7F8B575
:101FE00007260E40B400A119C9006931FF3141181C
:101FF000A519ED0045192F007D37FF373A602A00FB
:102000008132FF3213600432002313606A35FF35DA
:102010002B70A419E40004196934FF342670006899
:1020200001F01CF80020F8BD07230B409900C918E7
:10203000C90040188530FF3000687047F0B5C646CB
:1020400000B507260E40771CBD00E919C900884677
:102050008044B400A419E4000419E26323644C2210
:102060009446A4444B3A61460A70A3640023636417
:1020700043465A70ED19ED002E540068414600F0B9
:10208000EDFF002080BCB846F0BD70B504000B0029
:1020900007220A4041688A422AD859B200291FDB28
:1020A0009800C118C9006931FF316118C018C0001B
:1020B00020186A30FF300023037001238B700A70F0
:1020C000AA239B00E35C012B14D0AA25AD000123B9
:1020D0006355206800F024FF00236355002070BD85
:1020E000501C83001918C900611801204870E4E7EA
:1020F0000120F4E70220F2E770B504000B000F2284
:102100000A4041688A4230D85AB2002A23DB0720AD
:10211000184082001118C9006931FF316118121886
:10212000D200A2186A32FF320020107000228A709A
:10213000073213400B70AA239B00E35C012B16D0DF
:10214000AA25AD0001236355206800F00FFF00238E
:102150006355002070BD072018400130820011181F
:10216000C900611801204870E0E70120F2E7022071
:10217000F0E710B50C060CD50724214001318C0086
:102180006118C9004018002A0AD10273C3800020D8
:1021900010BD8C006118C9006931FF314018F2E7A9
:1021A0000122027303811B0C4381F0E70168BA230B
:1021B0009B000122C250083B0022C25454328B5A69
:1021C000012003439BB28B528B5A022003439BB2E4
:1021D0008B52002070477047064A136904208343DE
:1021E0001361012903D040BF20BF20BF704730BF1B
:1021F000FCE7C04600ED00E070B582B0041E00D1DF
:102200007FE20368DB072BD5B34B5A680C231340DE
:10221000042B1DD0B04B5A680C231340082B0ED052
:102220006368012B41D0002B56D1AB4B1A68AB49E8
:102230000A401A601A68AA490A401A603BE0A64B95
:102240005B68C02252021340802252029342E7D1BF
:10225000A14B1B689B0303D56368002B00D153E29D
:1022600023689B0777D59C4B5B680C221A4262D08F
:10227000994B5A680C231340082B53D0E368002B6A
:1022800000D18AE0944A136801210B431360FEF7E2
:10229000C7FA0500904B1B689B0775D4FEF7C0FA80
:1022A000401B0228F6D903202CE28B4A11688023B8
:1022B0005B020B4313606368002B25D0FEF7B0FA76
:1022C0000500854B1B689B03CAD4FEF7A9FA401B87
:1022D0006428F6D9032015E2052B09D07E4B1A6835
:1022E0007E490A401A601A687D490A401A60E2E78E
:1022F000794B19688022D2020A431A601968802239
:1023000052020A431A60D6E7FEF78AFA0500724BBA
:102310001B689B03A4D5FEF783FA401B6428F6D9FB
:102320000320EFE16C4B5B68C02252021340802215
:1023300012029342A2D1684B1B689B0703D5E36846
:10234000012B00D0E2E164490B68F8229343226933
:10235000D20013430B6023681B0744D5E369002BAD
:102360002ED05D4A536A01210B435362FEF758FA9F
:102370000500594B5B6A9B0735D4FEF751FA401BA9
:102380000228F6D90320BDE153490B68F822934394
:102390002269D20013430B60DDE74F4A1368012125
:1023A0008B431360FEF73CFA05004B4B1B689B0701
:1023B000D1D5FEF735FA401B0228F6D90320A1E15A
:1023C000454A536A01218B435362FEF729FA0500FF
:1023D000414B5B6A9B0706D5FEF722FA401B022899
:1023E000F6D903208EE123685B0700D480E03A4BE6
:1023F000DB69DB001DD4384BDA69802149050A43CB
:10240000DA61DB690B400193019B0125354B1B68A9
:10241000DB0510D5A368012B21D0002B36D12E4B24
:102420001A6A01218A431A621A6A03318A431A62BC
:102430001AE00025EAE72B4A116880235B000B4372
:102440001360FEF7EDF90600264B1B68DB05E1D4AF
:10245000FEF7E6F9801B6428F6D9032052E11E4AF4
:10246000136A01210B431362A368002B24D0FEF7EB
:10247000D7F90600184B1B6A9B0737D4FEF7D0F933
:10248000801B194B9842F5D903203BE1052B09D05D
:10249000114B1A6A01218A431A621A6A03318A436C
:1024A0001A62E1E70C4B1A6A04210A431A621A6A9B
:1024B00003390A431A62D7E7FEF7B2F90600064B62
:1024C0001B6A9B0712D5FEF7ABF9801B064B98429F
:1024D000F5D9032016E1C04600100240FFFFFEFFC1
:1024E000FFFFFBFF0070004088130000012D39D072
:1024F0002368DB0610D56369012B39D0053357D12A
:10250000894A536B04218B435363536BF4318B43E0
:10251000A169C9000B43536323689B066ED5824BA8
:102520005A680C2313400C2B60D07F4B5A680C2345
:102530001340082B53D0236A002B7ED07A4A516B6C
:1025400080235B020B435363FEF76AF90500764B69
:102550005B6B9B0352D4FEF763F9401B0228F6D94C
:102560000320CFE0704AD36970490B40D361BFE7C5
:102570006D4B5A6B04210A435A635A6B03390A4361
:102580005A63FEF74DF90500674B5B6B9B0706D45A
:10259000FEF746F9401B0228F6D90320B2E0624953
:1025A0004B6BF8229343A269D20013434B63B3E70A
:1025B0005D4B5A6B04210A435A635A6B03398A43B1
:1025C0005A63FEF72DF90500574B5B6B9B07A3D5AC
:1025D000FEF726F9401B0228F6D9032092E0524B61
:1025E0005B68C022520213409342A4D14E4B5B6BF6
:1025F0009B0303D5236A012B00D089E0636A002B7B
:1026000000D187E0484A51680C220A40082A60D06D
:10261000022B25D0444A136845490B401360FEF74E
:10262000FFF80400404B1B689B0150D5FEF7F8F8FB
:10263000001B0228F6D9032064E03B4A536B3D4956
:102640000B405363FEF7ECF80500374B5B6B9B03C5
:10265000D4D5FEF7E5F8401B0228F6D9032051E057
:10266000314A136832490B401360FEF7D9F8050070
:102670002D4B1B689B0106D5FEF7D2F8401B0228A4
:10268000F6D903203EE0284BDA6A0F218A43216BFA
:102690000A43DA625A6828490A40E16AA06A01439B
:1026A0000A435A601968802252040A431A60FEF7EE
:1026B000B7F804001C4B1B689B0106D4FEF7B0F86A
:1026C000001B0228F6D903201CE000201AE000209D
:1026D00018E0012B20D0144B5A68D86AC0235B0243
:1026E0001340A16A8B4219D10F230340216B8B4207
:1026F00016D1F0239B031A40E36A9A4212D10020BC
:1027000000E0012002B070BD0120FBE70120F9E7E5
:102710000120F7E70020F5E70120F3E70120F1E7CA
:102720000120EFE70120EDE700100240FFFFFFEF7F
:10273000FFFFFFFEFFFFFEFFFF7FC2FF10B5184B3C
:102740005A680C231340082B03D00C2B25D11548B5
:1027500010BD910C0F2319401348445C1049C96AFD
:102760000B401249C95CC0235B021A4080235B0204
:102770009A4208D0C0235B029A4209D00C48FDF768
:10278000CDFC6043E4E70A48FDF7C8FC6043DFE79F
:102790000448FDF7C3FC6043DAE70548D8E7C046C4
:1027A00000100240006CDC02DC590008EC59000803
:1027B00000127A0070B504000D00002800D186E0F8
:1027C000474B1A68012313408B420AD244490B68D5
:1027D000012293432B430B600B681A40AA4200D09E
:1027E00077E023689A070ED55B0705D53D4A516807
:1027F000E023DB000B4353603A4A5368F0218B43DC
:10280000A1680B4353602368DB0735D56368012B50
:1028100009D0022B24D0032B28D0324A1268920709
:1028200005D4012052E02F4A1268920353D52D4956
:102830004A680320824313434B60FDF7F1FF060013
:10284000284B5B680C221A4063689B009A4213D0A5
:10285000FDF7E6FF801B244B9842F1D9032035E0B9
:10286000204A12689201E2D401202FE01D4A526BE7
:102870009203DCD4012029E0194B1A68012313408C
:10288000AB4209D916490B68012293432B430B60D5
:102890000B681A40AA4220D123685B0706D5114A6B
:1028A000536812490B40E1680B435360FFF746FF42
:1028B0000C4B5A6812090F2313400D4AD35CD840C1
:1028C0000C4B18600320FDF767FF002070BD01204E
:1028D000FCE70120FAE70120F8E70120F6E7C0460F
:1028E000002002400010024088130000FFF8FFFFA4
:1028F000CC5900080000002070B582B004000368C5
:10290000DB0339D5484BDB69DB005FD4464BDA6922
:10291000802149050A43DA61DB690B400193019B81
:102920000125424B1B68DB0552D53F4B1A6AC02379
:102930009B00110019401A4215D06368C022920012
:1029400013408B420FD0384B1A6A394911401E6A26
:102950008020400230431862186A364E30401862B8
:102960001962D20748D4304A136A31490B40616872
:102970000B431362012D4ED02368DB0706D52A4A8C
:10298000136B03218B43A1680B43136323689B06DE
:1029900006D5254A136B10218B43E1680B43136363
:1029A00023689B0306D5204A136B80218B43616902
:1029B0000B43136323685B0532D51B4A136B40211D
:1029C0008B4321690B43136300202AE00025A8E70D
:1029D000164A116880235B000B431360FDF720FF4C
:1029E0000600124B1B68DB059FD4FDF719FF801B07
:1029F0006428F6D9032014E0FDF712FF06000A4B05
:102A00001B6A9B07AFD4FDF70BFF801B0A4B984254
:102A1000F5D9032005E0D36908490B40D361ABE742
:102A2000002002B070BDC04600100240007000409F
:102A3000FFFCFFFFFFFFFEFF88130000FFFFFFEF1B
:102A400044230022C252043B014AC2520020704774
:102A500080BFFFFF4022835A02490B40835200206F
:102A60007047C0467F40000084B0019102920393FA
:102A700040220123835200238352043283520C32BA
:102A80008352002004B07047F0B503000D78AD000C
:102A900045192A88BA480240C878022859D00AD86D
:102AA000002852D0012804D18020C0000243002019
:102AB00009E0012007E0032804D1C020C000024340
:102AC000002000E00120AF4C224392B22A800A7815
:102AD00096009E1935882DB2AB4F3D402A4392B2E5
:102AE0001443A4B234800A7B002A00D0A2E04A78C2
:102AF000002A3BD050229C5A1C190A78D200121985
:102B00008024E400A4466244CC88640864001480F5
:102B10000A7892009A181488640605D515883D40F5
:102B20009A4C2C43A4B21480CA78012A13D00A7894
:102B300092009A18138896490B4020214B409BB273
:102B400090490B439BB21380CEE08024A400224323
:102B5000B9E70020B7E70A7892009B1819888C4AD9
:102B60001140884A0A4392B21A80BDE050255C5B4E
:102B70001C190A78D2001219864CA4466244CC88EB
:102B80006408640014805C5B1C190A78D200121976
:102B9000814CA44662441488A405A40D14800C69D9
:102BA0003E2C28D96509E40600D1013D1488AD0208
:102BB000ADB22543794C2C43A4B214800A7892001C
:102BC0009A181488640406D515886F4C2540744CF7
:102BD0002C43A4B214800A78002A1ED192009A18BD
:102BE000138870490B40C02189015940654B0B4344
:102BF0009BB2138078E0002C05D11488674D2C43DC
:102C0000A4B21480DAE76508E40700D5013514881A
:102C1000AD02ADB22C431480D0E792009A1813880D
:102C200060490B40802189015940564B0B439BB2B0
:102C3000138059E0CA78022A57D00A7892009A186D
:102C40001588594C25404F4C2C43A4B21480502574
:102C50005C5B1C190A78D20012198024E400A44697
:102C600062440C896408640014805C5B1C190A7857
:102C7000D2001219474CA44662444C89640864008F
:102C800014804A78002A3BD10A7892009A18148856
:102C9000640406D515883C4C2540414C2C43A4B215
:102CA00014800A7892009A181488640606D515884C
:102CB000354C2540354C2C43A4B214800D78AD0022
:102CC0005D192C88374A1440C022920162402D4C75
:102CD000224392B22A800A7892009B181A882C49C3
:102CE0000A401443A4B21C80F0BD0A7892009A18DE
:102CF0001588254C25402D4C2C43A4B21480A6E702
:102D00000A7892009A181488640406D515881E4C17
:102D10002540234C2C43A4B214800A7892009A18C0
:102D20001488640606D51588174C2540174C2C438B
:102D3000A4B21480CA78012A17D00C78A4001C19F8
:102D40002288134D2A4020256A4092B20D4D2A4315
:102D500092B222800A7892009B181988114A114079
:102D6000084A0A4392B21A80BEE70A7892009A187B
:102D70001588074C2540034C2C43A4B21480E9E786
:102D80008F89FFFF8080FFFF8F8FFFFFC080FFFFD5
:102D9000BF8FFFFF04040000060400000080FFFF57
:102DA00080C0FFFF8FBFFFFF8F8EFFFF8081FFFF7F
:102DB00010B50B7B002B33D14B78002B18D00B7840
:102DC0009B00C3181A88520606D51C884E4A144028
:102DD0004E4A224392B21A800B789B00C31819887E
:102DE0004B4A11404B4A0A4392B21A80002010BD50
:102DF0000B789B00C3181A88520406D51C88424AD7
:102E00001440454A224392B21A800B789B00C318A3
:102E10001988424A11403F4A0A4392B21A80E5E7B4
:102E20004B78002B37D10B789B00C3181A885204BB
:102E300006D51C88344A1440374A224392B21A807D
:102E40000B789B00C3181A88520606D51C882E4A98
:102E500014402E4A224392B21A800B789B00C3186A
:102E60001C88294A1440294A224392B21A800C78BD
:102E7000A40004192388294A1340264A13439BB20D
:102E800023800B789B00C3181988214801400A430E
:102E900092B21A80AAE70B789B00C3181A885204D2
:102EA00006D51C88184A14401B4A224392B21A8045
:102EB0000B789B00C3181A88520606D51C88124A44
:102EC0001440124A224392B21A800B789B00C31816
:102ED0001C880D4A1440104A224392B21A800C7882
:102EE000A400041923880A4A13400A4A13439BB2D8
:102EF00023800B789B00C018038808490B401A43B5
:102F000092B2028072E7C0468F8FFFFFC080FFFF42
:102F1000BF8FFFFF8080FFFF80C0FFFF8FBFFFFFDD
:102F20004B78002B0ED00B789B00C01803880C4AFE
:102F30001340102253409BB20A4A13439BB20380B2
:102F4000002070470B789B00C0180388064A134086
:102F5000802252015A40034B13439BB20380EFE798
:102F6000BF8FFFFF8080FFFF8FBFFFFF10B50B7B80
:102F7000002B3AD14B78002B1DD00B789B00C31847
:102F80001A88520606D51C88194A1440194A224349
:102F900092B21A80CB78012B27D00A78920082183F
:102FA000138815490B4020214B409BB213490B431A
:102FB0009BB2138019E00B789B00C3181A88520447
:102FC00006D51C880A4A14400D4A224392B21A8040
:102FD0000B789B00C01803880A4A1340C022920154
:102FE0005A40064B13439BB20380002010BDC046DD
:102FF0008F8FFFFFC080FFFFBF8FFFFF8080FFFF2D
:1030000080C0FFFF8FBFFFFF002902D14C23802229
:10301000C2520020704700005822835A02490B43D5
:103020009BB28352002070470080FFFF4423C05AA8
:1030300080B2704710B501335B0812188020C000C1
:103040008446624407E008784C78240204431480E4
:1030500002320231013B002BF5D110BD70B50500E5
:103060000C004A78012A35D00B7B002B00D06DE292
:103070008B6909698B4200D852E25B1AA361502325
:10308000EA5AAA182378DB009B18AB4A944663449B
:103090001A889205920D1A803E2900D844E24A0906
:1030A000C90600D1013A1988920292B21143A34A8B
:1030B0000A4392B21A8023789B00ED182B88A04A0D
:1030C0001340C02292015A409E4B13439BB22B8067
:1030D000002070BD8E6909698E4200D90E00237BE5
:1030E000002B2BD0E378022B48D0236A9B1B236252
:1030F0002378990069180988490600D4D0E1002A8C
:1031000000D0BCE15032AA5AAA18DB009B188A4AA8
:10311000944663441A889205920D1A803E2E00D878
:103120009BE17209F10600D1013A1988920292B22C
:103130001143824A0A4392B21A80AAE1B6B2E288E7
:10314000616933002800FFF775FF5023EA5AAA1877
:103150002378DB009B187C4A944663441E802278C7
:103160009200AA18138879490B4030214B409BB23A
:1031700074490B439BB213800020AAE7236A99424B
:1031800000D34FE123789B00EB181988704A114057
:10319000704A0A4392B21A80236A9B1B23622378E7
:1031A0009A00AA181288520600D495E06278002A84
:1031B0002CD15032AA5AAA18DB009B185E4A9446BA
:1031C00063441A889205920D1A803E2E0CD972091A
:1031D000F10600D1013A1988920292B21143574A7E
:1031E0000A4392B21A8013E0002E05D11A8853497F
:1031F0000A4392B21A800BE07208F10700D501323F
:103200001988920292B20A431A8001E0012A2DD055
:103210006289B3B261692800FFF70CFF63699B19EB
:103220006361236A226993422BD99B1B23626378D3
:10323000002B3CD15033EA5AAA182378DB009B18A4
:10324000414A944663441A889205920D1A803E2E94
:103250001BD97209F10600D1013A1988920292B283
:103260001143364A0A4392B21A8022E04F32AA5AD8
:10327000AA18DB009B18304A94466344B2B21A8005
:10328000C6E7002222621E00D1E7002E05D11A886F
:103290002A490A4392B21A800BE07208F10700D55E
:1032A00001321988920292B20A431A8001E0012B7E
:1032B00006D02289B3B261692800FFF7BBFE4EE752
:1032C0004F33EA5AAA182378DB009B181E4A94460B
:1032D0006344B2B21A80ECE76278002A3CD15032E3
:1032E000AA5AAA18DB009A18174B9C466244138806
:1032F0009B059B0D13803E2E0CD97309F10600D15E
:10330000013B11889B029BB219430C4B0B439BB2B0
:10331000138023E0002E05D1138808490B439BB28C
:1033200013801BE07308F10700D5013311889B025D
:103330009BB20B43138011E0060400000080FFFFE6
:103340008FBFFFFF8080FFFF02040000BF8FFFFFE1
:103350008F8FFFFF8081FFFF012A2DD02289B3B21A
:1033600061692800FFF766FE63699B196361236A40
:10337000226993422BD99B1B23626378002B3CD19B
:103380005033EA5AAA182378DB009B18C04A9446A7
:1033900063441A889205920D1A803E2E1BD9720939
:1033A000F10600D1013A1988920292B21143B94A4A
:1033B0000A4392B21A8022E04F32AA5AAA18DB00BE
:1033C0009B18B54A94466344B2B21A80C6E70022FD
:1033D00022621E00D1E7002E05D11A88AD490A43AA
:1033E00092B21A800BE07208F10700D501321988F9
:1033F000920292B20A431A8001E0012B06D0628940
:10340000B3B261692800FFF715FEA8E64F33EA5A08
:10341000AA182378DB009B189D4A94466344B2B2F5
:103420001A80ECE722789200AA1810889B4908407D
:103430009B49014389B211805022A95A6918227808
:10344000D200521894498C4662449BB21380228960
:1034500061692800FFF7EEFD81E6002E05D11A888C
:103460008C490A4392B21A8013E07208F10700D522
:1034700001321988920292B20A431A8009E050225E
:10348000AA5AAA18DB009B18814A94466344B2B238
:103490001A806289B3B261692800FFF7CBFD5EE64E
:1034A000002A2CD15032AA5AAA18DB009B187A4A5B
:1034B000944663441A889205920D1A803E2E0CD9C8
:1034C0007209F10600D1013A1988920292B21143B1
:1034D000704A0A4392B21A801BE0002E05D11A8866
:1034E0006C490A4392B21A8013E07208F10700D5C2
:1034F00001321988920292B20A431A8009E05022DE
:10350000AA5AAA18DB009B18634A94466344B2B2D5
:103510001A802289B3B261692800FFF78BFD1EE68D
:103520000022A2611900AAE5002905D11A8859498B
:103530000A4392B21A80BEE54A08C90700D5013293
:103540001988920292B20A431A80B4E5CB78022B12
:1035500048D0012B00D00BE189692369994200D83A
:10356000CFE0C91AA161002A1BD15032A95A6918AB
:103570002278D200521848498C4662441188890545
:10358000890D11803E2B00D8BFE05909D80600D123
:1035900001391088890289B208433E49014389B242
:1035A00011806278002A00D0D3E05032A95A6918FD
:1035B0002278D200521836498C4662441188890517
:1035C000890D11803E2B00D8B1E05909DB0600D1EE
:1035D00001391388890289B219432E4B0B439BB2E0
:1035E000138068E5002A1AD14E33C25A82180B782C
:1035F000DB009B18284A99180B889B059B0D0B80B4
:1036000022693E2A2AD95309D20600D1013B0A88F1
:103610009B029BB21A431F4B13439BB20B806378F0
:10362000002B49D15033EA5AAA182378DB009B18A3
:10363000174A99180B889B059B0D0B8022693E2A1F
:103640001ED95309D20600D1013B0A889B029BB2C6
:103650001A43104B13439BB20B802FE0002A05D175
:103660000B880C4A13439BB20B80D8E75308D20750
:1036700000D501330A889B029BB213430B80CEE72F
:10368000002A0FD10B88034A13439BB20B8015E02D
:10369000060400000080FFFF020400008F8EFFFF81
:1036A0008080FFFF5308D20700D501330A889B02B0
:1036B0009BB213430B8001E0012B16D0E369002B72
:1036C00000D1F8E423789B00EB181A8829490A40B6
:1036D0008A4202D0002A00D0EDE41988264A11401F
:1036E000264A0A4392B21A80E5E44F33EA5AAA18EE
:1036F0002378DB009B18224A94466344228A1A806E
:10370000DCE70023A3610B002DE7002B05D1118816
:103710001C48014389B2118043E75908D80700D5F6
:1037200001311088890289B20143118039E7002BE9
:1037300005D1138813490B439BB21380BBE459088E
:10374000DB0700D501311388890289B20B4313804E
:10375000B1E4012A00D0AEE44F32A95A69182278A8
:10376000D200521806498C4662449BB21380A2E4F0
:103770000120AEE4404000008F8FFFFFC080FFFFBC
:10378000060400000080FFFF30B55D08121880209D
:10379000C0008446624406E0148802320C70240A99
:1037A0004C700231013D002DF6D1DB0701D51388A5
:1037B0000B7030BD10B5AE239B00C4580433C35802
:1037C000002B0DD080229200A05CFF2808D09B68BF
:1037D000044AA25C2100984780239B00FF22E25408
:1037E000002010BD01020000432303800048704701
:1037F00044000020432303800048704788000020D5
:103800004323038000487047D80000200A23038028
:1038100000487047CC00002070B50400AE25AD0014
:10382000465901F037F983239B00F0506359002B70
:103830000BD0AF239B00E358DB6883229200B118C2
:10384000083AB0589847002070BD0220FCE770B5D8
:1038500004000D00AE239B00C6580833C258002E4A
:1038600021D08B005B189B00C318D869002808D0B2
:103870008B005B18DB00D218916BFCF7D5FC00299C
:1038800005D085239B000022F250002070BDAB00C4
:103890005B199B00E3180022DA6100232900200055
:1038A00001F0E6F8F1E70220F0E70000F0B583B0A0
:1038B00005000C00AE239B00C75800236A46D37155
:1038C00001AA13800B78602216001E401A422BD0EA
:1038D000202E5BD1CA88002A1DD05BB2002B0DDAE6
:1038E000AF239B00C3589B68487839009847E2880B
:1038F0003900280000F045FE00264AE04A7880237F
:103900009B00FA548A79244BFA54CA88390000F093
:103910004EFE00263DE0AF239B00C3589B684878CD
:1039200000229847002634E04F780A2F16D00B2F3C
:1039300023D0002F03D000F0CFFA022629E0A723DE
:103940009B00C35C032B03D000F0C6FA022620E0E4
:10395000022201A900F015FE3E001AE0A7239B00F9
:10396000C35C032B03D000F0B7FA022611E001225A
:103970006B46D91D00F005FE0BE0A7239B00C35C3E
:10398000032B06D000F0A8FA022602E000F0A4FA09
:103990000226300003B0F0BD0102000070B5040043
:1039A000812101F028F80025E5620121200001F0C5
:1039B00022F8B6235B00E5508221200001F01BF8BD
:1039C0002564AE239B00E358002B0BD0AF239B0054
:1039D000E3585B689847AE25AD00605901F066F882
:1039E00000236351002070BD70B50400037C002BE0
:1039F0003AD18026B60033000222812100F0EFFF89
:103A00000125E562330002220121200000F0E7FFDA
:103A1000B6235B00E550082303228221200000F03A
:103A2000DEFF012323648720800001F03BF80500BE
:103A3000AE239B00E050002832D00433E3581B68CB
:103A40009847002385229200AB500432AB50267C6D
:103A5000002E1AD18033143AAA589B00012120006D
:103A600001F00FF8300070BD40230222812100F0E8
:103A7000B6FF0125E562402302220121200000F06B
:103A8000AEFFB6235B00E550C5E781239B00EA58F3
:103A9000C53BFF3B0121200000F0F3FF0026E1E7DA
:103AA0000126DFE7002904D0AF239B00C15000208E
:103AB00070470220FCE7AE239B00C35882208000A1
:103AC0001950842189005A5000207047AE239B0072
:103AD000C258B43BD1500020704710B5AE239B00B4
:103AE000C258002A16D0A43BD358002B01D0012085
:103AF00010BD85239B000121D150043BD1580163A7
:103B0000D35A8221890052588839FF3900F0B0FF1A
:103B10000020EDE70220EBE710B5AE239B00C25872
:103B2000002A15D0037C002B09D180338121890024
:103B300052589B00012100F0A4FF002010BD8123FA
:103B40009B00D258C53BFF3B012100F09AFFF4E7F0
:103B50000220F3E710B5002816D0AD239B00C35810
:103B6000002B03D0AD239B000024C450002902D0B9
:103B7000AC239B00C150A7239B000121C1540270BC
:103B800000F0E2FE002010BD0220FCE7002904D076
:103B9000AD239B00C150002070470220FCE710B508
:103BA00000F014FF002010BD10B5AD239B00C358DA
:103BB000002B06D01B689847002800D110BD0220BA
:103BC000FCE70220FAE710B5AD239B00C3585B6801
:103BD0009847002010BD000070B50400AA239B0088
:103BE000C518280000F064F9A5239B000122E250CB
:103BF000114BE25A163BE2501033E15C1F230B409D
:103C0000012B0FD0022B12D0002B05D07F2399431C
:103C1000200000F0F9FE03E02900200000F022FB64
:103C2000002070BD2900200000F052FBF8E72900B9
:103C3000200000F080FBF3E7AE02000070B5050045
:103C40000C001100002C38D1A5239B00C358032B76
:103C500003D0052B28D020003DE002005532FF3272
:103C6000D368126993420DD99B1A5530FF30C36057
:103C70009A4205D99AB2280000F0AAFC20002AE056
:103C800092B2F8E7AD239B00C3581B69002B04D008
:103C9000A7229200825C032A04D0280000F0A0FC36
:103CA000200018E09847F8E7A5239B000022C250A7
:103CB000002100F0A9FE20000DE0AD239B00C358B9
:103CC0009B69002B08D0A7229200825C032A05D1B1
:103CD00021009847002070BD0220FCE70220FAE78F
:103CE000F8B505000C001100002C5BD1A5239B004A
:103CF000C358022B0ED0042B01D0002B03D18021FE
:103D0000280000F081FEA8239B00EB5C012B43D030
:103D10002000F8BD026A466AB24220D8C769310065
:103D20003800FCF781FA002906D1BE4204D8A62348
:103D30009B00EB589F421ED3AD239B00EB58DB68E2
:103D4000002B04D0A7229200AA5C032A21D0802154
:103D5000280000F059FE280000F04EFCD3E7921B2B
:103D6000026292B200F01BFC002300220021280016
:103D700000F087FEC7E70022280000F010FCA62311
:103D80009B000022EA5000230021280000F079FE69
:103D9000B9E728009847DAE7A8239B000022EA54F5
:103DA0002000B6E7AD239B00C3585B69002B08D009
:103DB000A7229200825C032A05D1210098470020A7
:103DC000A7E70220A5E70220A3E770B5040040237F
:103DD0000022002100F003FE0125AC235B00E5502A
:103DE00040260C33E650253BFF3B0022802120007B
:103DF00000F0F5FDA5616662A7239B00E554002352
:103E0000A5229200A35063601032A350AE239B0002
:103E1000E358002B06D0AD239B00E3585B680021DC
:103E200020009847002070BD0174002070470000FA
:103E3000A7239B00C15C034A81540422C254002082
:103E40007047C0469D020000A7239B00C35C042B63
:103E500001D000207047024BC25C013BC254F8E71E
:103E60009D02000010B5A7239B00C35C032B01D06B
:103E7000002010BDAD239B00C358DB69002BF7D099
:103E80009847F5E70300002002E00130C0B201339B
:103E90001A78002AF9D1704710B54B88012B00D051
:103EA00010BDA9239B000122C25000F099FBF7E747
:103EB0000B7803704B7843708B78CA7812029B188A
:103EC00043800B794A7912029B1883808B79CA79D7
:103ED00012029B18C380704710B50400802100F0C7
:103EE00093FD0021200000F08FFD10BD30B583B0A0
:103EF00005000C006B460022DA804A88130A072B63
:103F000000D9B6E09B006549CB589F46AC239B0087
:103F1000C3581B68007C6A46911D98476B46063360
:103F20001B88002B03D0E288002A00D0A6E0E3889B
:103F3000002B00D1AEE003B030BD037C002B09D1D3
:103F4000AD239B00C3589B6A6A46901D9847022385
:103F50004370E3E7AD239B00C358DB6A6A46901DBC
:103F6000984702234370D9E7D2B2052A5DD8920060
:103F70004B4B9B589F46AC239B00C3585B68002B60
:103F800004D0007C6A46911D9847C7E72100FFF7DF
:103F9000A3FFD0E7AC239B00C3589B68002B04D041
:103FA000007C6A46911D9847B8E72100FFF794FF0F
:103FB000C1E7AC239B00C358DB68002B04D0007C16
:103FC0006A46911D9847A9E72100FFF785FFB2E7F0
:103FD000AC239B00C3581B69002B04D0007C6A46AD
:103FE000911D98479AE72100FFF776FFA3E7AC23DE
:103FF0009B00C3585B69002B04D0007C6A46911D6E
:1040000098478BE72100FFF767FF94E7AC239B00FD
:10401000C3589B69002B04D0007C6A46911D9847C9
:104020007CE72100FFF758FF85E72100FFF754FFE9
:1040300081E7037C002B07D1AD239B00C3585B6B4A
:104040006A46901D984769E72100FFF745FF72E730
:10405000037C002B09D1AD239B00C3581B6B6A4620
:10406000901D98470723437058E72100FFF734FF5E
:1040700061E721002800FFF72FFF5CE7191C93423E
:1040800000D9111C8AB26B46D9800100280000F0CB
:1040900078FA4CE7280000F0A3FA4CE7FC59000836
:1040A0001C5A000870B504008B88002B23D1CB88E4
:1040B000002B20D14B887F2B1DD87F251D40A723A7
:1040C0009B00C35C032B0ED00D4BC554290000F0A0
:1040D000C6FC200000F084FA002D07D0A7239B0027
:1040E0000222E2540AE0FFF7F7FE07E0A7239B0055
:1040F0000122E25402E02000FFF7EEFE70BDC04650
:104100009E02000070B504000D0089782A4B1970DA
:1041100001290FD8A7239B00C35C022B0ED0032BD1
:1041200023D02900FFF7D8FE234B19782000FFF792
:104130004AFD02E02900FFF7CFFE70BD002911D033
:104140004160A7239B000322C254FFF72DFD0228E4
:1041500003D0200000F044FAEFE729002000FFF729
:10416000BBFEEAE700F03CFAE7E7002911D043681C
:1041700099421ED0D9B2FFF726FD0F4B1978616026
:104180002000FFF711FD02280ED0200000F028FAD1
:10419000D3E7A7239B000222C2544160FFF713FD1F
:1041A000200000F01DFAC8E729002000FFF794FE68
:1041B000C3E700F015FAC0E7A002002010B5CB88D5
:1041C000012B0BD1A7239B00C35C022B09D9032B26
:1041D00009D1011D012200F0D4F901E0FFF77CFEB6
:1041E00010BD002B02D1FFF777FEF9E700238360B3
:1041F00001000831012200F0C4F9F1E710B5A7234E
:104200009B00C35C013B022B14D8CB88022B0ED140
:104210000123C360A9239B00C358002B01D00323B3
:10422000C36001000C31022200F0ABF910BDFFF7B2
:1042300053FEFBE7FFF750FEF8E710B5A7239B00FE
:10424000C35C013B022B0AD84B88012B00D010BD68
:10425000A9239B000022C25000F0C2F9F7E7FFF744
:104260003BFEF4E710B50A7860231340202B06D0FC
:10427000402B04D0002B09D0FFF72EFE04E0AD2325
:104280009B00C3589B689847002010BD4B78092BB2
:1042900018D89B000D4AD3589F46FFF727FEF3E737
:1042A000FFF700FFF0E7FFF72DFFEDE7FFF786FFD1
:1042B000EAE7FFF7A3FFE7E7FFF7EEFDE4E7FFF725
:1042C000BCFFE1E7FFF708FEDEE7C046345A00080E
:1042D00070B505000C000A7860231340202B07D02E
:1042E000402B05D0002B03D0FFF7F6FD002070BD5A
:1042F000A7239B00EB5C013B022B17D82379012BF2
:104300000FD8AD239B00EB589B68210028009847ED
:10431000E388002BEAD10028E8D1280000F060F9FA
:10432000E4E721002800FFF7D7FDDFE721002800A0
:10433000FFF7D2FDDAE770B5050088880A790B78B7
:1043400060241C40202C08D0402C06D0002C0DD01E
:104350002800FFF7C1FD002406E0AD239B00EB58C9
:104360009B68280098470024200070BD202C0AD0AC
:104370004E78012E3ED0032E0DD0002E64D02800A2
:10438000FFF7AAFDF0E7AD239B00EB589B682800E0
:1043900098470400E8E7A7239B00EB5C022B05D0BD
:1043A000032B14D02800FFF797FDDDE7002A01D08A
:1043B000802A03D12800FFF78FFDD5E711002800E0
:1043C00000F022FB8021280000F01EFBCCE74B8888
:1043D000002B06D1002A04D0802A02D0CB88002BE3
:1043E00003D0280000F0FCF8BEE71100280000F020
:1043F0000BFBF6E7A7239B00EB5C022B05D0032BFE
:1044000014D02800FFF768FDAEE7002A01D0802A0B
:1044100003D12800FFF760FDA6E71100280000F097
:10442000F3FA8021280000F0EFFA9DE74B88002B7B
:104430009AD1530603D1280000F0D2F894E7110076
:10444000280000F0EAFAF6E7A7239B00EB5C022BBA
:1044500006D0032B29D02800FFF73EFD340083E768
:10446000002A01D0802A12D1000615D47F231340E0
:104470009900C91889005131FF31691804310023AE
:104480000B600222280000F07CF834006CE7280062
:10449000FFF722FD340067E77F2313409900C91816
:1044A0008900103169180431E9E744B2000622D4CA
:1044B0000F20104083001B189B00EB185933FF336B
:1044C0001B68002B25D0002C28DB7F2313409C0089
:1044D000E418A4005134FF342C190434002A01D00C
:1044E000802A24D10023236002222100280000F02A
:1044F00048F8340038E70F20104083001B189B0059
:10450000EB189B69002BDED12800FFF7E5FC340097
:104510002AE72800FFF7E0FC340025E77F2313405B
:104520009C00E418A40010342C190434D6E71100C0
:10453000280000F07BFA002802D001232360D3E793
:1045400000232360D0E770B504000D00160000289A
:1045500016D0FFF797FC013043009BB233802B70DD
:1045600003236B70013B08E001345A1CD2B2E854BB
:104570000233DBB2AA180021117020780028F3D191
:1045800070BD10B51300A522920002248450C361AF
:1045900003620A00002100F06BFA002010BD10B584
:1045A00013000A00002100F063FA002010BD10B5CE
:1045B0001300A522920003248450393AFF3A835015
:1045C000043283500A00002100F05BFA002010BD85
:1045D00010B513000A00002100F053FA002010BDAE
:1045E00010B5A5239B000422C25000230022002105
:1045F00000F03EFA002010BD10B5A5239B00052257
:10460000C25000230022002100F03BFA002010BD20
:1046100010B5124912480022FFF79CFA002811D168
:1046200010490F48FFF7B2FA00280ED10E490C4886
:10463000FFF738FA00280BD10948FFF7B0FA002835
:1046400009D110BDFBF79AFEEAE7FBF797FEEDE70D
:10465000FBF794FEF0E7FBF791FEF2E72C01002058
:10466000A40200200C0000201C0100200020704744
:104670000020704710B50100044C2000FFF726FA17
:104680002000FFF749FA002010BDC046A402002018
:1046900010B50649064C00222000FFF70CFA054928
:1046A0002000FFF713FA002010BDC046E8050020E7
:1046B000A40200206805002010B50A00094BAE21B5
:1046C0008900595885239B00CB58002B01D001202D
:1046D00010BD044C01002000FFF7EDF92000FFF7AA
:1046E000FCF9F5E7A402002012230B800048704774
:1046F0004801002004230B80004870475C01002023
:1047000030B500230AE05D0037344C5500015C00F1
:1047100001340C19002525700133DBB2934206D217
:10472000040F092CEFD85D0030344C55EEE730BD56
:1047300070B50B4B18680B4B1D680B4B1B68C018F2
:10474000002800D170BD094CA11C0822FFF7D8FF3A
:104750002100123104222800FFF7D2FFF2E7C04601
:10476000ACF7FF1FB0F7FF1FB4F7FF1F6001002079
:1047700010B51A230B80FFF7DBFF014810BDC046C0
:104780006001002010B50A00002805D1054906483F
:10479000FFF7D9FE034810BD02490348FFF7D3FED7
:1047A000F8E7C046680600205C5A000810B50A0009
:1047B000034C04482100FFF7C6FE200010BDC04690
:1047C00068060020685A000810B50A00002805D1C4
:1047D00005490648FFF7B7FE034810BD02490348E4
:1047E000FFF7B1FEF8E7C04668060020785A0008D7
:1047F00010B50A00002805D105490648FFF7A3FEB9
:10480000034810BD02490348FFF79DFEF8E7C04684
:1048100068060020845A0008022804D005D8002821
:1048200000D0022070470120FCE70220FAE710B513
:10483000FBF71EFE10BD000000B583B002680C4BF4
:104840009A4201D003B000BD0A4BDA698021090405
:104850000A43DA61DB690B400193019B00220021CE
:104860001F20FCF797FA1F20FCF7C4FAEAE7C046BE
:10487000005C00400010024010B50100BC239B000A
:10488000C058403B9C466144FFF7A6F910BD10B5E7
:104890000300BC22920080588A005218D2009B1854
:1048A0007D33FF331A68FFF7C9F910BD10B5030057
:1048B000BC22920080588A005218D2009B18DA6BF2
:1048C000FFF70EFA10BD10B5BC239B00C058FFF7D0
:1048D000C9FA10BD70B504008368022B09D1BC254C
:1048E000AD0060590121FFF79FFA6059FFF76DFA9B
:1048F00070BDFBF743FDF2E710B50400BC239B003D
:10490000C058FFF795FAA369002B04D0024A136937
:1049100006210B43136110BD00ED00E010B504004B
:104920008369002B05D1BC239B00E058FFF78CFA6C
:1049300010BD044A136906218B431361FFF777FF0B
:10494000F1E7C04600ED00E070B504001D48BC234F
:104950009B00C450303BE0501B4B03600823436076
:10496000063B8360036100238361C3610362FCF73C
:10497000D9FC002823D1B025AD00605918230022AE
:104980000021FDF7F6FB6059582300228021FDF736
:10499000F0FB6059C02300228121FDF7EAFB60593A
:1049A00088235B0000220121FDF7E3FB605980238F
:1049B0005B0000228221FDF7DCFB002070BDFBF7CD
:1049C000DDFCD8E7E8060020005C004010B5B0230D
:1049D0009B00C058FCF716FDFFF71EFF10BD10B579
:1049E00014001A00B0239B00C0582300FDF788FA7A
:1049F000FFF712FF10BD10B5B0239B00C058FDF7A4
:104A0000BAFAFFF709FF10BD10B5B0239B00C058DC
:104A1000FDF73BFBFFF700FF10BD10B5B0239B0077
:104A2000C058FDF769FBFFF7F7FE10BDB0239B00F0
:104A3000C3584AB2002A09DB7F2211408A0052186B
:104A4000D2009B186B33FF33187870477F221140D8
:104A500001318A005218D2009B189878F5E710B5FA
:104A6000B0239B00C058FDF775F9FFF7D5FE10BDC8
:104A700010B5B024A4000059FDF7E0FAFFF7CCFE12
:104A800010BD10B5B024A4000059FDF7A8FAFFF737
:104A9000C3FE10BD10B5B0239B00C058FDF7C4FA8B
:104AA00010BD000000487047DC090020704700007E
:104AB000002310B504000360436083608181436676
:104AC000C281036143618361190008225C3000F0F8
:104AD0000FF90B4B246263620A4BA3620A4BE36239
:104AE0000A4B23630A4B9C4205D00A4B9C4202D0DE
:104AF000094B9C4203D12000583000F079F910BDD9
:104B0000594C0008814C0008B94C0008E54C0008DD
:104B1000FC0B0020640C0020CC0C002010B5034AD4
:104B20000349044800F06CF810BDC0467C01002029
:104B3000915600088801002041680B4B10B5040015
:104B4000994201D000F0A4FDA168084B994202D01F
:104B5000200000F09DFDE168054B994202D0200045
:104B600000F096FD10BDC046FC0B0020640C002038
:104B7000CC0C002010B5094B094A04211A600948E1
:104B80000022FFF795FF012209210748FFF790FF58
:104B9000022212210548FFF78BFF10BD340D0020C3
:104BA0001D4B0008FC0B0020640C0020CC0C0020E6
:104BB00010B5024800F01DF910BDC0463D0D0020A3
:104BC00010B5024800F016F910BDC0463D0D00209A
:104BD00010B50400FFF7ECFF236A002B02D0FFF7AB
:104BE000EFFF10BD044B2362044B1B68002BF6D172
:104BF000FFF7C0FFF3E7C046394B0008340D002033
:104C0000F7B51400002600900191A5686768013F80
:104C100004D52468002CF8D13000FEBDAB89012BEF
:104C200008D90E22AB5E013304D029000098019B05
:104C3000984706436835EAE70FB407B5054904AB62
:104C4000086804CB8168019300F0FCF903B008BC4C
:104C500004B01847D401002070B50C000E25495F40
:104C600000F074F8002803DB636D1B18636570BDEA
:104C7000A389024A1340A381F9E7C046FFEFFFFF73
:104C8000F8B51F008B8905000C001600DB0505D563
:104C90000E23C95E0022022300F044F8A389054ACE
:104CA00028001340A38132000E23E15E3B0000F098
:104CB00061F8F8BDFFEFFFFF70B50C000E25495FEE
:104CC00000F030F8A389421C03D1054A1340A381A8
:104CD00070BD802252011343A3816065F8E7C0468E
:104CE000FFEFFFFF10B50E23C95E00F009F810BDFD
:104CF00003008218934200D1704719700133F9E71D
:104D0000002370B5064D040008002B60FBF7D0FCB3
:104D1000431C03D12B68002B00D0236070BDC0461C
:104D2000380D002070B50400080011001A0000239F
:104D3000054D2B60FBF7C6FC431C03D12B68002BF1
:104D400000D0236070BDC046380D002070B504004F
:104D5000080011001A000023054D2B60FBF79AFC98
:104D6000431C03D12B68002B00D0236070BDC046CC
:104D7000380D002070B50400080011001A0000234F
:104D8000054D2B60FBF7F2FA431C03D12B68002B77
:104D900000D0236070BDC046380D0020014B18685C
:104DA0007047C046D401002070B500260C4C0D4D54
:104DB000641BA410A64209D1002600F0E3FD0A4CB2
:104DC0000A4D641BA410A64205D170BDB300EB5878
:104DD00098470136EEE7B300EB5898470136F2E703
:104DE000C85A0008C85A0008CC5A0008C85A000817
:104DF000704770477047000070B50500002910D05B
:104E00000C1F2368002B00DAE418280000F0E2F8F9
:104E10001D4A1368002B05D163601460280000F060
:104E2000E1F870BDA34208D9206821188B42F3D164
:104E300019685B6809182160EEE71A005B68002BAF
:104E400001D0A342F9D911685018A0420BD12068B3
:104E50000918501811608342E0D118685B68411846
:104E600011605360DAE7A04202D90C232B60D5E72A
:104E7000206821188B4203D119685B6809182160EA
:104E800063605460CAE7C046400D002070B50F4E05
:104E90000D0031680400002902D100F0CBFC306025
:104EA0002900200000F0C6FC431C0AD00323C51CC7
:104EB0009D43A84207D0291A200000F0BBFC013016
:104EC00001D101256D42280070BDC046440D00206F
:104ED000F7B50322CB1C9343083306001F000C2BAD
:104EE00038D20C27B94237D8300000F073F8384B6D
:104EF00000931B681C00002C33D139003000FFF7F1
:104F0000C5FF0400431C5ED1009B1C682500002DDA
:104F10004ED1002C51D023682900E31830000193B2
:104F200000F088FC019B834247D123683000FF1AC0
:104F30003900FFF7ABFF01303FD02368DB19236056
:104F4000009B1B68002B40D05A68A24233D100223C
:104F50005A6014E0002BC5DA0C23002533602800CA
:104F6000FEBD2168C91B20D40B2918D9E21927607E
:104F7000A34212D1009B1A60636811605360300035
:104F8000250000F02FF807220B35231D9543EA1A60
:104F90009D42E4D05B1BA350E1E75A60ECE76268F6
:104FA000A342D5D1009B1A60E9E723006468A2E719
:104FB0002C006D68ABE71300C4E70C2330003360AE
:104FC00000F010F8CBE72760D9E75B60FFDEC04652
:104FD000400D002010B50248FFF70BFF10BDC04682
:104FE0003C0D002010B50248FFF704FF10BDC0467D
:104FF0003C0D0020936810B5013B9360002B04DA50
:105000009469A34207DB0A2905D01368581C106075
:105010001970080010BD00F066FB0100F9E7F8B553
:1050200006000F001400D518AC4201D1002007E0A3
:1050300021783A003000FFF7DDFF0134431CF3D143
:10504000F8BD0000F0B5A1B00F0015001E000390E0
:10505000002804D0036A002B01D1FFF7B9FD7B6E55
:10506000DB0705D4BB899B0502D4B86DFFF7C1FEF1
:10507000BB891B0702D53B69002B13D1390003986C
:1050800000F074FB00280DD07B6EDB0703D50120F8
:10509000404221B0F0BDBB899B05F8D4B86DFFF745
:1050A000A9FEF4E7002308AC636120336376103374
:1050B000A37607962E003378002B01D0252B48D1FC
:1050C000731B0593AE420BD02A0039000398FFF7FB
:1050D000A6FF013000D1AFE06369059A9B186361B8
:1050E0003378002B00D1A7E00122002352426260F6
:1050F00004A954325218751C2360E360A360137036
:10510000A365594B052218002978059300F0A4FBEC
:105110006E1C00281FD12268D30604D5532304A98E
:105120005B1820211970130704D5532304A95B18B9
:105130002B2119702B782A2B16D02E0000210A2043
:10514000E3683278751C303A092A4ED9002911D10A
:1051500017E00136AFE7059B2268C01A01238340A0
:10516000134335002360CCE7079B191D1B6807918B
:10517000002B01DB0B9304E05B42E360022313434B
:10518000236033782E2B0AD173782A2B35D1079BD5
:1051900002361A1D1B680792002B2BDB0993334D37
:1051A00003222800317800F057FB002806D0402366
:1051B000401B834022680136134323603178062266
:1051C0002B48751C217600F047FB002843D0294B63
:1051D000002B25D10722079B0733934308330793FE
:1051E0006369049A9B18636164E743432E000121BD
:1051F0009B18A6E701235B42D0E700230A201A0090
:10520000013663603178751C3039092903D9002BC8
:10521000C5D00992C3E742432E0001235218F1E79B
:1052200007AA009221003A00134B039800E000BF48
:105230000490049B0133D3D17B6EDB0705D4BB897B
:105240009B0502D4B86DFFF7D5FDBB895B0600D581
:105250001DE70D981DE707AA009221003A00064BB2
:10526000039800F07BF8E3E7925A0008985A000888
:105270009C5A0008000000001F500008F7B51600F7
:1052800001938A680B690C000090934200DA1300C6
:105290002200336043321278002A01D00133336098
:1052A00023689B0602D533680233336022680623E5
:1052B00015001D401A4227D0230043331B785A1E85
:1052C00093412268920630D4220001990098089DEB
:1052D0004332A847013025D0062223680025134019
:1052E000042B05D13368E568ED1AEB43DB171D404D
:1052F000A3682269934201DD9B1AED180026B5428E
:1053000020D1002010E00135E36832689B1AAB42DF
:10531000D2DD2200012301990098089F1932B84775
:105320000130F0D101204042FEBD3020E118433170
:10533000087021005A1C45310978A2184332023303
:105340001170C1E72200012301990098089F1A32C9
:10535000B8470130E6D00136D1E70000F0B58BB098
:1053600006920A0043320793059004920A7E0C00CD
:10537000109B782A09D8622A0BD8002A00D1BEE0F7
:105380007C490391582A00D193E0260042363270BE
:1053900022E0100063381528F7D8FAF7B5FE16009A
:1053A0001F00F6FFF6FFF6FFF6FF1F00F6FFF6FF01
:1053B000F6FFF6FFA30036008300F6FFF6FFB40009
:1053C000F6FF3600F6FFF6FF870026001A68423621
:1053D000111D1960136833700123A2E01868096871
:1053E000021D0D060BD505681A60002D03DA2D236A
:1053F000049A6D4213705F4B0A2703931BE0056804
:105400001A604906F1D52DB2EFE70D681968081D3D
:1054100018602E0601D50D6803E06D06FBD50D68FA
:10542000ADB2544B082703936F2A00D002372300F4
:10543000002243331A706368A360002B03DB04214E
:1054400022688A432260002D02D1049E002B0CD0DA
:10545000049E28003900FAF7E7FE039B013E5B5CDF
:1054600033702B0005009F42F3D9082F09D1236820
:10547000DB0706D5626823699A4202DC3023013ECD
:105480003370049B9B1B2361079B210000930598AD
:10549000069B09AAFFF7F2FE013047D101204042E6
:1054A0000BB0F0BD202209680A43226078223249FD
:1054B0000391210045310A701968226820C910063D
:1054C00002D4500600D5ADB21960D30702D520230F
:1054D000134323601027002DA9D120222368934372
:1054E0002360A4E71A680D68101D496918601368E5
:1054F0002E0601D5196002E06D06FBD51980002348
:10550000049E2361C0E71A68111D19601668002106
:105510003000626800F0A0F9002801D0801B6060B4
:10552000636823610023049A1370ADE73200236996
:1055300006990598079DA8470130AFD023689B07BF
:1055400015D4099BE0689842AADA1800A8E722005F
:10555000012306990598079E1932B04701309DD066
:105560000135E368099A9B1AAB42F0DCE9E70025B4
:10557000F7E7C046A35A0008B45A0008F7B58B896C
:1055800005000C001A075CD44A68002A04DC0A6C87
:10559000002A01DC0020FEBDE76A002FFAD00022BD
:1055A00080202E682A601A004001216A02400342CE
:1055B00034D0606DA3895B0706D56368C01A636B3E
:1055C000002B01D0236CC01A020000232800E76AD8
:1055D000216AB847A289431C06D129681D292CD805
:1055E0002A4B0B41DB0728D4002363602369236027
:1055F000D20405D5431C02D12B68002B00D1606575
:10560000616B2E600029C5D023004433994202D03B
:105610002800FFF7F1FB00206063BCE701232800AE
:10562000B847431CC6D12B68002BC3D01D2B01D01B
:10563000162B01D12E60ADE7A28940231343A3812D
:10564000A9E70E69002EA5D00F680E60BA1B019263
:1056500000229B0700D14A69A260019B002B99DDC3
:10566000A36A32001F002800019B216AB847002866
:1056700006DC40230120A28940421343A3818AE72C
:10568000019B36181B1A0193E7E7C046FEFFBFDFF8
:105690000B6970B505000C00002B02D10025280015
:1056A00070BD002804D0036A002B01D1FFF790FAE7
:1056B0000C22A35E002BF1D0626ED20704D49B05AE
:1056C00002D4A06DFFF795FB28002100FFF756FFDD
:1056D000636E0500DB07E2D4A3899B05DFD4A06DD0
:1056E000FFF788FBDBE7F8B506000D001400002883
:1056F00004D0036A002B01D1FFF76AFAA369A36003
:10570000A3891B0728D52369002B25D0236920688E
:10571000EFB2C01A6369EDB2834205DC21003000AC
:10572000FFF7B6FF00281DD1A3680130013BA3603D
:1057300023685A1C22601F706369834204D0A389C6
:10574000DB0707D50A2D05D121003000FFF7A0FFA8
:10575000002807D12800F8BD2100300000F006F82D
:105760000028D3D001256D42F4E70000304B70B51E
:10577000050018680C00002804D0036A002B01D132
:10578000FFF726FA0C23E25E93B2110723D4D90661
:1057900007D4092301202B6037331343A3814042F0
:1057A00070BD5B0713D5616B002908D0230044331B
:1057B000994202D02800FFF71FFB002363632422D5
:1057C000A3899343A3810023636023692360082393
:1057D000A2891343A3812369002B0BD1A02180222E
:1057E000A389890092000B40934203D02100280036
:1057F00000F066F80C22A35E01201A0099B2024064
:1058000003420FD00022A26062695242A2610020CE
:1058100022698242C4D10906C2D540221343A38122
:105820000138BDE7880700D46269A260EFE7C0468F
:10583000D4010020002370B5064D040008002B6041
:10584000FAF742FF431C03D12B68002B00D02360E2
:1058500070BDC046380D0020C9B28218904201D1F7
:105860000020704703788B42FBD00130F6E7000040
:1058700070B50E001D000E23C95E140096B00029FD
:105880000CDAB2898023110019401A4213D000218A
:10589000403B00202960236016B070BD6A4600F0CE
:1058A0004DF80028EDDBF02301991B021940034B52
:1058B000C9184B4259418023DB00EAE700E0FFFFB3
:1058C000F7B502268B8905000C00334206D0230071
:1058D00047332360236101236361F7BD6A4601AB4F
:1058E000FFF7C6FF009907002800FFF7F1FA00282C
:1058F00008D10C22A35E9A05EFD4032293431E43E2
:10590000A681E4E78023A28920601343A381009B42
:1059100020616361019B002B0CD028000E23E15E07
:1059200000F01EF8002805D00323A2899A43023B09
:105930001343A381A3893B43A381CEE7002370B522
:10594000064D0400080011002B60FAF7B4FE431C5A
:1059500003D12B68002B00D0236070BD380D0020D0
:10596000002370B5064D040008002B60FAF7A8FE6E
:10597000431C03D12B68002B00D0236070BDC046B0
:10598000380D0020F8B5C046F8BC08BC9E467047EC
:0C599000F8B5C046F8BC08BC9E46704745
:10599C0055444C523A202530316420253031642056
:1059AC00253031642025303164204C523A2025308A
:1059BC0034642055443A20253034640D0A0000002C
:1059CC0000000000000000000102030406070809A3
:1059DC0002030405060708090A0B0C0D0E0F101024
:1059EC000102030405060708090A0B0C0D0E0F1023
:1059FC00724000080C3F00083A3F0008683F00085E
:105A0C007240000872400008324000085040000804
:105A1C00763F0008943F0008B23F0008D03F0008D2
:105A2C00EE3F00080C400008B2420008BE420008DD
:105A3C00C4420008B8420008C4420008A042000852
:105A4C009A420008C4420008AC420008A642000872
:105A5C004D383830204A58590000000052616469B2
:105A6C006F6175746F6D6174796B61004344432091
:105A7C00436F6E666967000043444320496E74654A
:105A8C00726661636500232D302B2000686C4C001E
:105A9C006566674546470030313233343536373822
:105AAC003941424344454600303132333435363780
:0C5ABC0038396162636465660000000018
:045AC800E9000008E9
:045ACC00C10000080D
